{
  "_format": "hh-sol-artifact-1",
  "contractName": "NFTForXFactory",
  "sourceName": "contracts/NFTForXFactory.sol",
  "abi": [
    {
      "anonymous": false,
      "inputs": [
        {
          "indexed": false,
          "internalType": "address",
          "name": "campaignAddress",
          "type": "address"
        }
      ],
      "name": "CampaignCreated",
      "type": "event"
    },
    {
      "inputs": [
        {
          "internalType": "address",
          "name": "__owner",
          "type": "address"
        },
        {
          "internalType": "address",
          "name": "__collection",
          "type": "address"
        },
        {
          "internalType": "uint256",
          "name": "__maxRedeemPerUser",
          "type": "uint256"
        }
      ],
      "name": "createCampaign",
      "outputs": [],
      "stateMutability": "nonpayable",
      "type": "function"
    },
    {
      "inputs": [
        {
          "internalType": "uint256",
          "name": "campaignId",
          "type": "uint256"
        }
      ],
      "name": "getCampaign",
      "outputs": [
        {
          "internalType": "address",
          "name": "",
          "type": "address"
        }
      ],
      "stateMutability": "view",
      "type": "function"
    },
    {
      "inputs": [],
      "name": "numberOfCampaigns",
      "outputs": [
        {
          "internalType": "uint256",
          "name": "",
          "type": "uint256"
        }
      ],
      "stateMutability": "view",
      "type": "function"
    }
  ],
  "bytecode": "0x608060405234801561001057600080fd5b506113cf806100206000396000f3fe608060405234801561001057600080fd5b50600436106100415760003560e01c806307ca140d14610046578063554bd334146100645780635598f8cc14610080575b600080fd5b61004e6100b0565b60405161005b919061031d565b60405180910390f35b61007e60048036038101906100799190610235565b6100c1565b005b61009a60048036038101906100959190610284565b61019e565b6040516100a791906102cb565b60405180910390f35b60006100bc60016101da565b905090565b60008383836040516100d2906101fe565b6100de939291906102e6565b604051809103906000f0801580156100fa573d6000803e3d6000fd5b5090508060008061010b60016101da565b815260200190815260200160002060006101000a81548173ffffffffffffffffffffffffffffffffffffffff021916908373ffffffffffffffffffffffffffffffffffffffff16021790555061016160016101e8565b7f07a9c134c6ed9c353773b355c69cbf65e34e3c3820554f5b8e1afdecdfb402928160405161019091906102cb565b60405180910390a150505050565b600080600083815260200190815260200160002060009054906101000a900473ffffffffffffffffffffffffffffffffffffffff169050919050565b600081600001549050919050565b6001816000016000828254019250508190555050565b610ff7806103a383390190565b60008135905061021a81610374565b92915050565b60008135905061022f8161038b565b92915050565b60008060006060848603121561024a57600080fd5b60006102588682870161020b565b93505060206102698682870161020b565b925050604061027a86828701610220565b9150509250925092565b60006020828403121561029657600080fd5b60006102a484828501610220565b91505092915050565b6102b681610338565b82525050565b6102c58161036a565b82525050565b60006020820190506102e060008301846102ad565b92915050565b60006060820190506102fb60008301866102ad565b61030860208301856102ad565b61031560408301846102bc565b949350505050565b600060208201905061033260008301846102bc565b92915050565b60006103438261034a565b9050919050565b600073ffffffffffffffffffffffffffffffffffffffff82169050919050565b6000819050919050565b61037d81610338565b811461038857600080fd5b50565b6103948161036a565b811461039f57600080fd5b5056fe60806040523480156200001157600080fd5b5060405162000ff738038062000ff78339818101604052810190620000379190620000f7565b82600260006101000a81548173ffffffffffffffffffffffffffffffffffffffff021916908373ffffffffffffffffffffffffffffffffffffffff16021790555081600360006101000a81548173ffffffffffffffffffffffffffffffffffffffff021916908373ffffffffffffffffffffffffffffffffffffffff16021790555080600081905550505050620001bf565b600081519050620000da816200018b565b92915050565b600081519050620000f181620001a5565b92915050565b6000806000606084860312156200010d57600080fd5b60006200011d86828701620000c9565b93505060206200013086828701620000c9565b92505060406200014386828701620000e0565b9150509250925092565b60006200015a8262000161565b9050919050565b600073ffffffffffffffffffffffffffffffffffffffff82169050919050565b6000819050919050565b62000196816200014d565b8114620001a257600080fd5b50565b620001b08162000181565b8114620001bc57600080fd5b50565b610e2880620001cf6000396000f3fe608060405234801561001057600080fd5b50600436106100a85760003560e01c80637cbc2373116100715780637cbc23731461018b5780637de1e536146101bb5780638da5cb5b146101d95780639025fe9f146101f75780639c2a1fdb14610227578063ee8f16d814610245576100a8565b80624e7753146100ad578063518e3589146100dd57806351c6e6201461010d578063682a23e01461013d578063762a8f4c1461016d575b600080fd5b6100c760048036038101906100c291906108fc565b610275565b6040516100d49190610bb4565b60405180910390f35b6100f760048036038101906100f291906108d3565b6102a6565b6040516101049190610bb4565b60405180910390f35b610127600480360381019061012291906108d3565b6102be565b6040516101349190610b32565b60405180910390f35b610157600480360381019061015291906108d3565b610443565b6040516101649190610b32565b60405180910390f35b6101756104da565b6040516101829190610bb4565b60405180910390f35b6101a560048036038101906101a09190610961565b6104e3565b6040516101b29190610bb4565b60405180910390f35b6101c36107ea565b6040516101d09190610aa9565b60405180910390f35b6101e1610814565b6040516101ee9190610aa9565b60405180910390f35b610211600480360381019061020c9190610938565b61083e565b60405161021e9190610bb4565b60405180910390f35b61022f610856565b60405161023c9190610bb4565b60405180910390f35b61025f600480360381019061025a91906108d3565b610860565b60405161026c9190610bb4565b60405180910390f35b6004602052816000526040600020818154811061029157600080fd5b90600052602060002001600091509150505481565b60066020528060005260406000206000915090505481565b60606000600460008473ffffffffffffffffffffffffffffffffffffffff1673ffffffffffffffffffffffffffffffffffffffff16815260200190815260200160002090506000818054905067ffffffffffffffff811115610349577f4e487b7100000000000000000000000000000000000000000000000000000000600052604160045260246000fd5b6040519080825280602002602001820160405280156103775781602001602082028036833780820191505090505b50905060005b828054905081101561043857600560008483815481106103c6577f4e487b7100000000000000000000000000000000000000000000000000000000600052603260045260246000fd5b9060005260206000200154815260200190815260200160002054828281518110610419577f4e487b7100000000000000000000000000000000000000000000000000000000600052603260045260246000fd5b602002602001018181525050808061043090610cab565b91505061037d565b508092505050919050565b6060600460008373ffffffffffffffffffffffffffffffffffffffff1673ffffffffffffffffffffffffffffffffffffffff1681526020019081526020016000208054806020026020016040519081016040528092919081815260200182805480156104ce57602002820191906000526020600020905b8154815260200190600101908083116104ba575b50505050509050919050565b60008054905090565b60003373ffffffffffffffffffffffffffffffffffffffff16610504610814565b73ffffffffffffffffffffffffffffffffffffffff16141561055b576040517f08c379a000000000000000000000000000000000000000000000000000000000815260040161055290610b54565b60405180910390fd5b600061056633610860565b905060005481106105ac576040517f08c379a00000000000000000000000000000000000000000000000000000000081526004016105a390610b74565b60405180910390fd5b836000600560008381526020019081526020016000205414610603576040517f08c379a00000000000000000000000000000000000000000000000000000000081526004016105fa90610b94565b60405180910390fd5b600360009054906101000a900473ffffffffffffffffffffffffffffffffffffffff1673ffffffffffffffffffffffffffffffffffffffff166342842e0e33600260009054906101000a900473ffffffffffffffffffffffffffffffffffffffff16886040518463ffffffff1660e01b815260040161068493929190610ac4565b600060405180830381600087803b15801561069e57600080fd5b505af11580156106b2573d6000803e3d6000fd5b50505050600460003373ffffffffffffffffffffffffffffffffffffffff1673ffffffffffffffffffffffffffffffffffffffff1681526020019081526020016000208590806001815401808255809150506001900390600052602060002001600090919091909150558360056000878152602001908152602001600020819055506001600660003373ffffffffffffffffffffffffffffffffffffffff1673ffffffffffffffffffffffffffffffffffffffff16815260200190815260200160002060008282546107849190610c19565b92505081905550600180600082825461079d9190610c19565b925050819055507fe5b754fb1abb7f01b499791d0b820ae3b6af3424ac1c59768edb53f4ec31a9293386866040516107d793929190610afb565b60405180910390a1849250505092915050565b6000600360009054906101000a900473ffffffffffffffffffffffffffffffffffffffff16905090565b6000600260009054906101000a900473ffffffffffffffffffffffffffffffffffffffff16905090565b60056020528060005260406000206000915090505481565b6000600154905090565b6000600660008373ffffffffffffffffffffffffffffffffffffffff1673ffffffffffffffffffffffffffffffffffffffff168152602001908152602001600020549050919050565b6000813590506108b881610dc4565b92915050565b6000813590506108cd81610ddb565b92915050565b6000602082840312156108e557600080fd5b60006108f3848285016108a9565b91505092915050565b6000806040838503121561090f57600080fd5b600061091d858286016108a9565b925050602061092e858286016108be565b9150509250929050565b60006020828403121561094a57600080fd5b6000610958848285016108be565b91505092915050565b6000806040838503121561097457600080fd5b6000610982858286016108be565b9250506020610993858286016108be565b9150509250929050565b60006109a98383610a8b565b60208301905092915050565b6109be81610c6f565b82525050565b60006109cf82610bdf565b6109d98185610bf7565b93506109e483610bcf565b8060005b83811015610a155781516109fc888261099d565b9750610a0783610bea565b9250506001810190506109e8565b5085935050505092915050565b6000610a2f601383610c08565b9150610a3a82610d23565b602082019050919050565b6000610a52601b83610c08565b9150610a5d82610d4c565b602082019050919050565b6000610a75602683610c08565b9150610a8082610d75565b604082019050919050565b610a9481610ca1565b82525050565b610aa381610ca1565b82525050565b6000602082019050610abe60008301846109b5565b92915050565b6000606082019050610ad960008301866109b5565b610ae660208301856109b5565b610af36040830184610a9a565b949350505050565b6000606082019050610b1060008301866109b5565b610b1d6020830185610a9a565b610b2a6040830184610a9a565b949350505050565b60006020820190508181036000830152610b4c81846109c4565b905092915050565b60006020820190508181036000830152610b6d81610a22565b9050919050565b60006020820190508181036000830152610b8d81610a45565b9050919050565b60006020820190508181036000830152610bad81610a68565b9050919050565b6000602082019050610bc96000830184610a9a565b92915050565b6000819050602082019050919050565b600081519050919050565b6000602082019050919050565b600082825260208201905092915050565b600082825260208201905092915050565b6000610c2482610ca1565b9150610c2f83610ca1565b9250827fffffffffffffffffffffffffffffffffffffffffffffffffffffffffffffffff03821115610c6457610c63610cf4565b5b828201905092915050565b6000610c7a82610c81565b9050919050565b600073ffffffffffffffffffffffffffffffffffffffff82169050919050565b6000819050919050565b6000610cb682610ca1565b91507fffffffffffffffffffffffffffffffffffffffffffffffffffffffffffffffff821415610ce957610ce8610cf4565b5b600182019050919050565b7f4e487b7100000000000000000000000000000000000000000000000000000000600052601160045260246000fd5b7f43616c6c6572206973206e6f74206f776e657200000000000000000000000000600082015250565b7f43616c6c6572206578636565642072656465656d206c696d69742e0000000000600082015250565b7f43616c6c657220747279696e6720746f2072656465656d2072656465656d656460008201527f20746f6b656e0000000000000000000000000000000000000000000000000000602082015250565b610dcd81610c6f565b8114610dd857600080fd5b50565b610de481610ca1565b8114610def57600080fd5b5056fea2646970667358221220c0ee8d548c357db6a52682643876501a44fa25e336566ec2db8025a0395e675664736f6c63430008040033a26469706673582212206d1ec1d3053028cb9bd2791dec1a386cab258d5a266cc4c555f4927f118c47a764736f6c63430008040033",
  "linkReferences": {},
  "deployedLinkReferences": {}
}