{
  "_format": "hh-sol-artifact-1",
  "contractName": "NFTForXFactory",
  "sourceName": "contracts/NFTForXFactory.sol",
  "abi": [
    {
      "anonymous": false,
      "inputs": [
        {
          "indexed": false,
          "internalType": "address",
          "name": "campaignAddress",
          "type": "address"
        }
      ],
      "name": "CampaignCreated",
      "type": "event"
    },
    {
      "inputs": [
        {
          "internalType": "address",
          "name": "__owner",
          "type": "address"
        },
        {
          "internalType": "address",
          "name": "__collection",
          "type": "address"
        },
        {
          "internalType": "uint256",
          "name": "__maxRedeemPerUser",
          "type": "uint256"
        }
      ],
      "name": "createCampaign",
      "outputs": [],
      "stateMutability": "nonpayable",
      "type": "function"
    },
    {
      "inputs": [
        {
          "internalType": "uint256",
          "name": "campaignId",
          "type": "uint256"
        }
      ],
      "name": "getCampaign",
      "outputs": [
        {
          "internalType": "address",
          "name": "",
          "type": "address"
        }
      ],
      "stateMutability": "view",
      "type": "function"
    },
    {
      "inputs": [],
      "name": "numberOfCampaigns",
      "outputs": [
        {
          "internalType": "uint256",
          "name": "",
          "type": "uint256"
        }
      ],
      "stateMutability": "view",
      "type": "function"
    }
  ],
  "bytecode": "0x608060405234801561001057600080fd5b506111c6806100206000396000f3fe608060405234801561001057600080fd5b50600436106100415760003560e01c806307ca140d14610046578063554bd334146100645780635598f8cc14610080575b600080fd5b61004e6100b0565b60405161005b919061031d565b60405180910390f35b61007e60048036038101906100799190610235565b6100c1565b005b61009a60048036038101906100959190610284565b61019e565b6040516100a791906102cb565b60405180910390f35b60006100bc60016101da565b905090565b60008383836040516100d2906101fe565b6100de939291906102e6565b604051809103906000f0801580156100fa573d6000803e3d6000fd5b5090508060008061010b60016101da565b815260200190815260200160002060006101000a81548173ffffffffffffffffffffffffffffffffffffffff021916908373ffffffffffffffffffffffffffffffffffffffff16021790555061016160016101e8565b7f07a9c134c6ed9c353773b355c69cbf65e34e3c3820554f5b8e1afdecdfb402928160405161019091906102cb565b60405180910390a150505050565b600080600083815260200190815260200160002060009054906101000a900473ffffffffffffffffffffffffffffffffffffffff169050919050565b600081600001549050919050565b6001816000016000828254019250508190555050565b610dee806103a383390190565b60008135905061021a81610374565b92915050565b60008135905061022f8161038b565b92915050565b60008060006060848603121561024a57600080fd5b60006102588682870161020b565b93505060206102698682870161020b565b925050604061027a86828701610220565b9150509250925092565b60006020828403121561029657600080fd5b60006102a484828501610220565b91505092915050565b6102b681610338565b82525050565b6102c58161036a565b82525050565b60006020820190506102e060008301846102ad565b92915050565b60006060820190506102fb60008301866102ad565b61030860208301856102ad565b61031560408301846102bc565b949350505050565b600060208201905061033260008301846102bc565b92915050565b60006103438261034a565b9050919050565b600073ffffffffffffffffffffffffffffffffffffffff82169050919050565b6000819050919050565b61037d81610338565b811461038857600080fd5b50565b6103948161036a565b811461039f57600080fd5b5056fe60806040523480156200001157600080fd5b5060405162000dee38038062000dee8339818101604052810190620000379190620000f7565b82600260006101000a81548173ffffffffffffffffffffffffffffffffffffffff021916908373ffffffffffffffffffffffffffffffffffffffff16021790555081600360006101000a81548173ffffffffffffffffffffffffffffffffffffffff021916908373ffffffffffffffffffffffffffffffffffffffff16021790555080600081905550505050620001bf565b600081519050620000da816200018b565b92915050565b600081519050620000f181620001a5565b92915050565b6000806000606084860312156200010d57600080fd5b60006200011d86828701620000c9565b93505060206200013086828701620000c9565b92505060406200014386828701620000e0565b9150509250925092565b60006200015a8262000161565b9050919050565b600073ffffffffffffffffffffffffffffffffffffffff82169050919050565b6000819050919050565b62000196816200014d565b8114620001a257600080fd5b50565b620001b08162000181565b8114620001bc57600080fd5b50565b610c1f80620001cf6000396000f3fe608060405234801561001057600080fd5b506004361061009d5760003560e01c80637de1e536116100665780637de1e536146101805780638da5cb5b1461019e5780639025fe9f146101bc5780639c2a1fdb146101ec578063ee8f16d81461020a5761009d565b80624e7753146100a2578063518e3589146100d2578063682a23e014610102578063762a8f4c146101325780637cbc237314610150575b600080fd5b6100bc60048036038101906100b7919061073c565b61023a565b6040516100c991906109f4565b60405180910390f35b6100ec60048036038101906100e79190610713565b61026b565b6040516100f991906109f4565b60405180910390f35b61011c60048036038101906101179190610713565b610283565b6040516101299190610972565b60405180910390f35b61013a61031a565b60405161014791906109f4565b60405180910390f35b61016a600480360381019061016591906107a1565b610323565b60405161017791906109f4565b60405180910390f35b61018861062a565b60405161019591906108e9565b60405180910390f35b6101a6610654565b6040516101b391906108e9565b60405180910390f35b6101d660048036038101906101d19190610778565b61067e565b6040516101e391906109f4565b60405180910390f35b6101f4610696565b60405161020191906109f4565b60405180910390f35b610224600480360381019061021f9190610713565b6106a0565b60405161023191906109f4565b60405180910390f35b6004602052816000526040600020818154811061025657600080fd5b90600052602060002001600091509150505481565b60066020528060005260406000206000915090505481565b6060600460008373ffffffffffffffffffffffffffffffffffffffff1673ffffffffffffffffffffffffffffffffffffffff16815260200190815260200160002080548060200260200160405190810160405280929190818152602001828054801561030e57602002820191906000526020600020905b8154815260200190600101908083116102fa575b50505050509050919050565b60008054905090565b60003373ffffffffffffffffffffffffffffffffffffffff16610344610654565b73ffffffffffffffffffffffffffffffffffffffff16141561039b576040517f08c379a000000000000000000000000000000000000000000000000000000000815260040161039290610994565b60405180910390fd5b60006103a6336106a0565b905060005481106103ec576040517f08c379a00000000000000000000000000000000000000000000000000000000081526004016103e3906109b4565b60405180910390fd5b836000600560008381526020019081526020016000205414610443576040517f08c379a000000000000000000000000000000000000000000000000000000000815260040161043a906109d4565b60405180910390fd5b600360009054906101000a900473ffffffffffffffffffffffffffffffffffffffff1673ffffffffffffffffffffffffffffffffffffffff166342842e0e33600260009054906101000a900473ffffffffffffffffffffffffffffffffffffffff16886040518463ffffffff1660e01b81526004016104c493929190610904565b600060405180830381600087803b1580156104de57600080fd5b505af11580156104f2573d6000803e3d6000fd5b50505050600460003373ffffffffffffffffffffffffffffffffffffffff1673ffffffffffffffffffffffffffffffffffffffff1681526020019081526020016000208590806001815401808255809150506001900390600052602060002001600090919091909150558360056000878152602001908152602001600020819055506001600660003373ffffffffffffffffffffffffffffffffffffffff1673ffffffffffffffffffffffffffffffffffffffff16815260200190815260200160002060008282546105c49190610a59565b9250508190555060018060008282546105dd9190610a59565b925050819055507fe5b754fb1abb7f01b499791d0b820ae3b6af3424ac1c59768edb53f4ec31a9293386866040516106179392919061093b565b60405180910390a1849250505092915050565b6000600360009054906101000a900473ffffffffffffffffffffffffffffffffffffffff16905090565b6000600260009054906101000a900473ffffffffffffffffffffffffffffffffffffffff16905090565b60056020528060005260406000206000915090505481565b6000600154905090565b6000600660008373ffffffffffffffffffffffffffffffffffffffff1673ffffffffffffffffffffffffffffffffffffffff168152602001908152602001600020549050919050565b6000813590506106f881610bbb565b92915050565b60008135905061070d81610bd2565b92915050565b60006020828403121561072557600080fd5b6000610733848285016106e9565b91505092915050565b6000806040838503121561074f57600080fd5b600061075d858286016106e9565b925050602061076e858286016106fe565b9150509250929050565b60006020828403121561078a57600080fd5b6000610798848285016106fe565b91505092915050565b600080604083850312156107b457600080fd5b60006107c2858286016106fe565b92505060206107d3858286016106fe565b9150509250929050565b60006107e983836108cb565b60208301905092915050565b6107fe81610aaf565b82525050565b600061080f82610a1f565b6108198185610a37565b935061082483610a0f565b8060005b8381101561085557815161083c88826107dd565b975061084783610a2a565b925050600181019050610828565b5085935050505092915050565b600061086f601383610a48565b915061087a82610b1a565b602082019050919050565b6000610892601b83610a48565b915061089d82610b43565b602082019050919050565b60006108b5602683610a48565b91506108c082610b6c565b604082019050919050565b6108d481610ae1565b82525050565b6108e381610ae1565b82525050565b60006020820190506108fe60008301846107f5565b92915050565b600060608201905061091960008301866107f5565b61092660208301856107f5565b61093360408301846108da565b949350505050565b600060608201905061095060008301866107f5565b61095d60208301856108da565b61096a60408301846108da565b949350505050565b6000602082019050818103600083015261098c8184610804565b905092915050565b600060208201905081810360008301526109ad81610862565b9050919050565b600060208201905081810360008301526109cd81610885565b9050919050565b600060208201905081810360008301526109ed816108a8565b9050919050565b6000602082019050610a0960008301846108da565b92915050565b6000819050602082019050919050565b600081519050919050565b6000602082019050919050565b600082825260208201905092915050565b600082825260208201905092915050565b6000610a6482610ae1565b9150610a6f83610ae1565b9250827fffffffffffffffffffffffffffffffffffffffffffffffffffffffffffffffff03821115610aa457610aa3610aeb565b5b828201905092915050565b6000610aba82610ac1565b9050919050565b600073ffffffffffffffffffffffffffffffffffffffff82169050919050565b6000819050919050565b7f4e487b7100000000000000000000000000000000000000000000000000000000600052601160045260246000fd5b7f43616c6c6572206973206e6f74206f776e657200000000000000000000000000600082015250565b7f43616c6c6572206578636565642072656465656d206c696d69742e0000000000600082015250565b7f43616c6c657220747279696e6720746f2072656465656d2072656465656d656460008201527f20746f6b656e0000000000000000000000000000000000000000000000000000602082015250565b610bc481610aaf565b8114610bcf57600080fd5b50565b610bdb81610ae1565b8114610be657600080fd5b5056fea264697066735822122050b1e1f9d495ff522805a64ff89b477a42493989994f5c18486b95095d37df6f64736f6c63430008040033a26469706673582212207c7531381c433c64053594a3978ab5da879ab1bae77ad9460d5e25e0cb46524d64736f6c63430008040033",
  "linkReferences": {},
  "deployedLinkReferences": {}
}