{
  "_format": "hh-sol-artifact-1",
  "contractName": "MockNFT",
  "sourceName": "contracts/mock/MockNFT.sol",
  "abi": [
    {
      "inputs": [],
      "stateMutability": "nonpayable",
      "type": "constructor"
    },
    {
      "anonymous": false,
      "inputs": [
        {
          "indexed": true,
          "internalType": "address",
          "name": "owner",
          "type": "address"
        },
        {
          "indexed": true,
          "internalType": "address",
          "name": "approved",
          "type": "address"
        },
        {
          "indexed": true,
          "internalType": "uint256",
          "name": "tokenId",
          "type": "uint256"
        }
      ],
      "name": "Approval",
      "type": "event"
    },
    {
      "anonymous": false,
      "inputs": [
        {
          "indexed": true,
          "internalType": "address",
          "name": "owner",
          "type": "address"
        },
        {
          "indexed": true,
          "internalType": "address",
          "name": "operator",
          "type": "address"
        },
        {
          "indexed": false,
          "internalType": "bool",
          "name": "approved",
          "type": "bool"
        }
      ],
      "name": "ApprovalForAll",
      "type": "event"
    },
    {
      "anonymous": false,
      "inputs": [
        {
          "indexed": true,
          "internalType": "address",
          "name": "previousOwner",
          "type": "address"
        },
        {
          "indexed": true,
          "internalType": "address",
          "name": "newOwner",
          "type": "address"
        }
      ],
      "name": "OwnershipTransferred",
      "type": "event"
    },
    {
      "anonymous": false,
      "inputs": [
        {
          "indexed": true,
          "internalType": "address",
          "name": "from",
          "type": "address"
        },
        {
          "indexed": true,
          "internalType": "address",
          "name": "to",
          "type": "address"
        },
        {
          "indexed": true,
          "internalType": "uint256",
          "name": "tokenId",
          "type": "uint256"
        }
      ],
      "name": "Transfer",
      "type": "event"
    },
    {
      "inputs": [
        {
          "internalType": "address",
          "name": "to",
          "type": "address"
        },
        {
          "internalType": "uint256",
          "name": "tokenId",
          "type": "uint256"
        }
      ],
      "name": "approve",
      "outputs": [],
      "stateMutability": "nonpayable",
      "type": "function"
    },
    {
      "inputs": [
        {
          "internalType": "address",
          "name": "owner",
          "type": "address"
        }
      ],
      "name": "balanceOf",
      "outputs": [
        {
          "internalType": "uint256",
          "name": "",
          "type": "uint256"
        }
      ],
      "stateMutability": "view",
      "type": "function"
    },
    {
      "inputs": [],
      "name": "baseURI",
      "outputs": [
        {
          "internalType": "string",
          "name": "",
          "type": "string"
        }
      ],
      "stateMutability": "view",
      "type": "function"
    },
    {
      "inputs": [
        {
          "internalType": "uint256",
          "name": "tokenId",
          "type": "uint256"
        }
      ],
      "name": "getApproved",
      "outputs": [
        {
          "internalType": "address",
          "name": "",
          "type": "address"
        }
      ],
      "stateMutability": "view",
      "type": "function"
    },
    {
      "inputs": [
        {
          "internalType": "address",
          "name": "owner",
          "type": "address"
        },
        {
          "internalType": "address",
          "name": "operator",
          "type": "address"
        }
      ],
      "name": "isApprovedForAll",
      "outputs": [
        {
          "internalType": "bool",
          "name": "",
          "type": "bool"
        }
      ],
      "stateMutability": "view",
      "type": "function"
    },
    {
      "inputs": [],
      "name": "maxSupply",
      "outputs": [
        {
          "internalType": "uint256",
          "name": "",
          "type": "uint256"
        }
      ],
      "stateMutability": "view",
      "type": "function"
    },
    {
      "inputs": [
        {
          "internalType": "address",
          "name": "to",
          "type": "address"
        }
      ],
      "name": "mint",
      "outputs": [],
      "stateMutability": "nonpayable",
      "type": "function"
    },
    {
      "inputs": [
        {
          "internalType": "address",
          "name": "to",
          "type": "address"
        },
        {
          "internalType": "uint256",
          "name": "amount",
          "type": "uint256"
        }
      ],
      "name": "mintTo",
      "outputs": [],
      "stateMutability": "nonpayable",
      "type": "function"
    },
    {
      "inputs": [],
      "name": "name",
      "outputs": [
        {
          "internalType": "string",
          "name": "",
          "type": "string"
        }
      ],
      "stateMutability": "view",
      "type": "function"
    },
    {
      "inputs": [],
      "name": "owner",
      "outputs": [
        {
          "internalType": "address",
          "name": "",
          "type": "address"
        }
      ],
      "stateMutability": "view",
      "type": "function"
    },
    {
      "inputs": [
        {
          "internalType": "uint256",
          "name": "tokenId",
          "type": "uint256"
        }
      ],
      "name": "ownerOf",
      "outputs": [
        {
          "internalType": "address",
          "name": "",
          "type": "address"
        }
      ],
      "stateMutability": "view",
      "type": "function"
    },
    {
      "inputs": [],
      "name": "renounceOwnership",
      "outputs": [],
      "stateMutability": "nonpayable",
      "type": "function"
    },
    {
      "inputs": [
        {
          "internalType": "address",
          "name": "from",
          "type": "address"
        },
        {
          "internalType": "address",
          "name": "to",
          "type": "address"
        },
        {
          "internalType": "uint256",
          "name": "tokenId",
          "type": "uint256"
        }
      ],
      "name": "safeTransferFrom",
      "outputs": [],
      "stateMutability": "nonpayable",
      "type": "function"
    },
    {
      "inputs": [
        {
          "internalType": "address",
          "name": "from",
          "type": "address"
        },
        {
          "internalType": "address",
          "name": "to",
          "type": "address"
        },
        {
          "internalType": "uint256",
          "name": "tokenId",
          "type": "uint256"
        },
        {
          "internalType": "bytes",
          "name": "_data",
          "type": "bytes"
        }
      ],
      "name": "safeTransferFrom",
      "outputs": [],
      "stateMutability": "nonpayable",
      "type": "function"
    },
    {
      "inputs": [
        {
          "internalType": "address",
          "name": "operator",
          "type": "address"
        },
        {
          "internalType": "bool",
          "name": "approved",
          "type": "bool"
        }
      ],
      "name": "setApprovalForAll",
      "outputs": [],
      "stateMutability": "nonpayable",
      "type": "function"
    },
    {
      "inputs": [
        {
          "internalType": "bytes4",
          "name": "interfaceId",
          "type": "bytes4"
        }
      ],
      "name": "supportsInterface",
      "outputs": [
        {
          "internalType": "bool",
          "name": "",
          "type": "bool"
        }
      ],
      "stateMutability": "view",
      "type": "function"
    },
    {
      "inputs": [],
      "name": "symbol",
      "outputs": [
        {
          "internalType": "string",
          "name": "",
          "type": "string"
        }
      ],
      "stateMutability": "view",
      "type": "function"
    },
    {
      "inputs": [
        {
          "internalType": "uint256",
          "name": "tokenId",
          "type": "uint256"
        }
      ],
      "name": "tokenURI",
      "outputs": [
        {
          "internalType": "string",
          "name": "",
          "type": "string"
        }
      ],
      "stateMutability": "view",
      "type": "function"
    },
    {
      "inputs": [
        {
          "internalType": "address",
          "name": "from",
          "type": "address"
        },
        {
          "internalType": "address",
          "name": "to",
          "type": "address"
        },
        {
          "internalType": "uint256",
          "name": "tokenId",
          "type": "uint256"
        }
      ],
      "name": "transferFrom",
      "outputs": [],
      "stateMutability": "nonpayable",
      "type": "function"
    },
    {
      "inputs": [
        {
          "internalType": "address",
          "name": "newOwner",
          "type": "address"
        }
      ],
      "name": "transferOwnership",
      "outputs": [],
      "stateMutability": "nonpayable",
      "type": "function"
    }
  ],
  "bytecode": "0x60806040526101f46007556040518060800160405280605181526020016200350560519139600990805190602001906200003b929190620001de565b503480156200004957600080fd5b506040518060400160405280600881526020017f4f6e674e465434580000000000000000000000000000000000000000000000008152506040518060400160405280601281526020017f4e465420466f722058205b4f6e67416e675d00000000000000000000000000008152508160009080519060200190620000ce929190620001de565b508060019080519060200190620000e7929190620001de565b5050506200010a620000fe6200011060201b60201c565b6200011860201b60201c565b620002f3565b600033905090565b6000600660009054906101000a900473ffffffffffffffffffffffffffffffffffffffff16905081600660006101000a81548173ffffffffffffffffffffffffffffffffffffffff021916908373ffffffffffffffffffffffffffffffffffffffff1602179055508173ffffffffffffffffffffffffffffffffffffffff168173ffffffffffffffffffffffffffffffffffffffff167f8be0079c531659141344cd1fd0a4f28419497f9722a3daafe3b4186f6b6457e060405160405180910390a35050565b828054620001ec906200028e565b90600052602060002090601f0160209004810192826200021057600085556200025c565b82601f106200022b57805160ff19168380011785556200025c565b828001600101855582156200025c579182015b828111156200025b5782518255916020019190600101906200023e565b5b5090506200026b91906200026f565b5090565b5b808211156200028a57600081600090555060010162000270565b5090565b60006002820490506001821680620002a757607f821691505b60208210811415620002be57620002bd620002c4565b5b50919050565b7f4e487b7100000000000000000000000000000000000000000000000000000000600052602260045260246000fd5b61320280620003036000396000f3fe608060405234801561001057600080fd5b506004361061012c5760003560e01c806370a08231116100ad578063b88d4fde11610071578063b88d4fde1461031b578063c87b56dd14610337578063d5abeb0114610367578063e985e9c514610385578063f2fde38b146103b55761012c565b806370a0823114610289578063715018a6146102b95780638da5cb5b146102c357806395d89b41146102e1578063a22cb465146102ff5761012c565b806342842e0e116100f457806342842e0e146101e7578063449a52f8146102035780636352211e1461021f5780636a6278421461024f5780636c0360eb1461026b5761012c565b806301ffc9a71461013157806306fdde0314610161578063081812fc1461017f578063095ea7b3146101af57806323b872dd146101cb575b600080fd5b61014b60048036038101906101469190611f78565b6103d1565b604051610158919061251e565b60405180910390f35b6101696104b3565b6040516101769190612539565b60405180910390f35b61019960048036038101906101949190611fca565b610545565b6040516101a691906124b7565b60405180910390f35b6101c960048036038101906101c49190611f3c565b6105ca565b005b6101e560048036038101906101e09190611e36565b6106e2565b005b61020160048036038101906101fc9190611e36565b610742565b005b61021d60048036038101906102189190611f3c565b610762565b005b61023960048036038101906102349190611fca565b61084d565b60405161024691906124b7565b60405180910390f35b61026960048036038101906102649190611dd1565b6108ff565b005b61027361090d565b6040516102809190612539565b60405180910390f35b6102a3600480360381019061029e9190611dd1565b61099b565b6040516102b0919061275b565b60405180910390f35b6102c1610a53565b005b6102cb610adb565b6040516102d891906124b7565b60405180910390f35b6102e9610b05565b6040516102f69190612539565b60405180910390f35b61031960048036038101906103149190611f00565b610b97565b005b61033560048036038101906103309190611e85565b610bad565b005b610351600480360381019061034c9190611fca565b610c0f565b60405161035e9190612539565b60405180910390f35b61036f610d02565b60405161037c919061275b565b60405180910390f35b61039f600480360381019061039a9190611dfa565b610d08565b6040516103ac919061251e565b60405180910390f35b6103cf60048036038101906103ca9190611dd1565b610d9c565b005b60007f80ac58cd000000000000000000000000000000000000000000000000000000007bffffffffffffffffffffffffffffffffffffffffffffffffffffffff1916827bffffffffffffffffffffffffffffffffffffffffffffffffffffffff1916148061049c57507f5b5e139f000000000000000000000000000000000000000000000000000000007bffffffffffffffffffffffffffffffffffffffffffffffffffffffff1916827bffffffffffffffffffffffffffffffffffffffffffffffffffffffff1916145b806104ac57506104ab82610e94565b5b9050919050565b6060600080546104c2906129ef565b80601f01602080910402602001604051908101604052809291908181526020018280546104ee906129ef565b801561053b5780601f106105105761010080835404028352916020019161053b565b820191906000526020600020905b81548152906001019060200180831161051e57829003601f168201915b5050505050905090565b600061055082610efe565b61058f576040517f08c379a0000000000000000000000000000000000000000000000000000000008152600401610586906126bb565b60405180910390fd5b6004600083815260200190815260200160002060009054906101000a900473ffffffffffffffffffffffffffffffffffffffff169050919050565b60006105d58261084d565b90508073ffffffffffffffffffffffffffffffffffffffff168373ffffffffffffffffffffffffffffffffffffffff161415610646576040517f08c379a000000000000000000000000000000000000000000000000000000000815260040161063d9061271b565b60405180910390fd5b8073ffffffffffffffffffffffffffffffffffffffff16610665610f6a565b73ffffffffffffffffffffffffffffffffffffffff16148061069457506106938161068e610f6a565b610d08565b5b6106d3576040517f08c379a00000000000000000000000000000000000000000000000000000000081526004016106ca9061263b565b60405180910390fd5b6106dd8383610f72565b505050565b6106f36106ed610f6a565b8261102b565b610732576040517f08c379a00000000000000000000000000000000000000000000000000000000081526004016107299061273b565b60405180910390fd5b61073d838383611109565b505050565b61075d83838360405180602001604052806000815250610bad565b505050565b61076a610f6a565b73ffffffffffffffffffffffffffffffffffffffff16610788610adb565b73ffffffffffffffffffffffffffffffffffffffff16146107de576040517f08c379a00000000000000000000000000000000000000000000000000000000081526004016107d5906126db565b60405180910390fd5b6007546001826107ee6008611365565b6107f89190612824565b6108029190612905565b111561080d57600080fd5b60005b818110156108485761082b836108266008611365565b611373565b6108356008611541565b808061084090612a52565b915050610810565b505050565b6000806002600084815260200190815260200160002060009054906101000a900473ffffffffffffffffffffffffffffffffffffffff169050600073ffffffffffffffffffffffffffffffffffffffff168173ffffffffffffffffffffffffffffffffffffffff1614156108f6576040517f08c379a00000000000000000000000000000000000000000000000000000000081526004016108ed9061267b565b60405180910390fd5b80915050919050565b61090a816001610762565b50565b6009805461091a906129ef565b80601f0160208091040260200160405190810160405280929190818152602001828054610946906129ef565b80156109935780601f1061096857610100808354040283529160200191610993565b820191906000526020600020905b81548152906001019060200180831161097657829003601f168201915b505050505081565b60008073ffffffffffffffffffffffffffffffffffffffff168273ffffffffffffffffffffffffffffffffffffffff161415610a0c576040517f08c379a0000000000000000000000000000000000000000000000000000000008152600401610a039061265b565b60405180910390fd5b600360008373ffffffffffffffffffffffffffffffffffffffff1673ffffffffffffffffffffffffffffffffffffffff168152602001908152602001600020549050919050565b610a5b610f6a565b73ffffffffffffffffffffffffffffffffffffffff16610a79610adb565b73ffffffffffffffffffffffffffffffffffffffff1614610acf576040517f08c379a0000000000000000000000000000000000000000000000000000000008152600401610ac6906126db565b60405180910390fd5b610ad96000611557565b565b6000600660009054906101000a900473ffffffffffffffffffffffffffffffffffffffff16905090565b606060018054610b14906129ef565b80601f0160208091040260200160405190810160405280929190818152602001828054610b40906129ef565b8015610b8d5780601f10610b6257610100808354040283529160200191610b8d565b820191906000526020600020905b815481529060010190602001808311610b7057829003601f168201915b5050505050905090565b610ba9610ba2610f6a565b838361161d565b5050565b610bbe610bb8610f6a565b8361102b565b610bfd576040517f08c379a0000000000000000000000000000000000000000000000000000000008152600401610bf49061273b565b60405180910390fd5b610c098484848461178a565b50505050565b6060610c1a82610efe565b610c59576040517f08c379a0000000000000000000000000000000000000000000000000000000008152600401610c50906125bb565b60405180910390fd5b60006009610c72600385610c6d9190612a9b565b6117e6565b604051602001610c83929190612421565b60405160208183030381529060405290506000610cd4610cae600186610ca99190612824565b6117e6565b83604051602001610cc0929190612450565b604051602081830303815290604052611993565b905080604051602001610ce79190612495565b60405160208183030381529060405291508192505050919050565b60075481565b6000600560008473ffffffffffffffffffffffffffffffffffffffff1673ffffffffffffffffffffffffffffffffffffffff16815260200190815260200160002060008373ffffffffffffffffffffffffffffffffffffffff1673ffffffffffffffffffffffffffffffffffffffff16815260200190815260200160002060009054906101000a900460ff16905092915050565b610da4610f6a565b73ffffffffffffffffffffffffffffffffffffffff16610dc2610adb565b73ffffffffffffffffffffffffffffffffffffffff1614610e18576040517f08c379a0000000000000000000000000000000000000000000000000000000008152600401610e0f906126db565b60405180910390fd5b600073ffffffffffffffffffffffffffffffffffffffff168173ffffffffffffffffffffffffffffffffffffffff161415610e88576040517f08c379a0000000000000000000000000000000000000000000000000000000008152600401610e7f9061257b565b60405180910390fd5b610e9181611557565b50565b60007f01ffc9a7000000000000000000000000000000000000000000000000000000007bffffffffffffffffffffffffffffffffffffffffffffffffffffffff1916827bffffffffffffffffffffffffffffffffffffffffffffffffffffffff1916149050919050565b60008073ffffffffffffffffffffffffffffffffffffffff166002600084815260200190815260200160002060009054906101000a900473ffffffffffffffffffffffffffffffffffffffff1673ffffffffffffffffffffffffffffffffffffffff1614159050919050565b600033905090565b816004600083815260200190815260200160002060006101000a81548173ffffffffffffffffffffffffffffffffffffffff021916908373ffffffffffffffffffffffffffffffffffffffff160217905550808273ffffffffffffffffffffffffffffffffffffffff16610fe58361084d565b73ffffffffffffffffffffffffffffffffffffffff167f8c5be1e5ebec7d5bd14f71427d1e84f3dd0314c0f7b2291e5b200ac8c7c3b92560405160405180910390a45050565b600061103682610efe565b611075576040517f08c379a000000000000000000000000000000000000000000000000000000000815260040161106c9061261b565b60405180910390fd5b60006110808361084d565b90508073ffffffffffffffffffffffffffffffffffffffff168473ffffffffffffffffffffffffffffffffffffffff1614806110ef57508373ffffffffffffffffffffffffffffffffffffffff166110d784610545565b73ffffffffffffffffffffffffffffffffffffffff16145b8061110057506110ff8185610d08565b5b91505092915050565b8273ffffffffffffffffffffffffffffffffffffffff166111298261084d565b73ffffffffffffffffffffffffffffffffffffffff161461117f576040517f08c379a0000000000000000000000000000000000000000000000000000000008152600401611176906126fb565b60405180910390fd5b600073ffffffffffffffffffffffffffffffffffffffff168273ffffffffffffffffffffffffffffffffffffffff1614156111ef576040517f08c379a00000000000000000000000000000000000000000000000000000000081526004016111e6906125db565b60405180910390fd5b6111fa838383611b51565b611205600082610f72565b6001600360008573ffffffffffffffffffffffffffffffffffffffff1673ffffffffffffffffffffffffffffffffffffffff16815260200190815260200160002060008282546112559190612905565b925050819055506001600360008473ffffffffffffffffffffffffffffffffffffffff1673ffffffffffffffffffffffffffffffffffffffff16815260200190815260200160002060008282546112ac9190612824565b92505081905550816002600083815260200190815260200160002060006101000a81548173ffffffffffffffffffffffffffffffffffffffff021916908373ffffffffffffffffffffffffffffffffffffffff160217905550808273ffffffffffffffffffffffffffffffffffffffff168473ffffffffffffffffffffffffffffffffffffffff167fddf252ad1be2c89b69c2b068fc378daa952ba7f163c4a11628f55a4df523b3ef60405160405180910390a4505050565b600081600001549050919050565b600073ffffffffffffffffffffffffffffffffffffffff168273ffffffffffffffffffffffffffffffffffffffff1614156113e3576040517f08c379a00000000000000000000000000000000000000000000000000000000081526004016113da9061269b565b60405180910390fd5b6113ec81610efe565b1561142c576040517f08c379a00000000000000000000000000000000000000000000000000000000081526004016114239061259b565b60405180910390fd5b61143860008383611b51565b6001600360008473ffffffffffffffffffffffffffffffffffffffff1673ffffffffffffffffffffffffffffffffffffffff16815260200190815260200160002060008282546114889190612824565b92505081905550816002600083815260200190815260200160002060006101000a81548173ffffffffffffffffffffffffffffffffffffffff021916908373ffffffffffffffffffffffffffffffffffffffff160217905550808273ffffffffffffffffffffffffffffffffffffffff16600073ffffffffffffffffffffffffffffffffffffffff167fddf252ad1be2c89b69c2b068fc378daa952ba7f163c4a11628f55a4df523b3ef60405160405180910390a45050565b6001816000016000828254019250508190555050565b6000600660009054906101000a900473ffffffffffffffffffffffffffffffffffffffff16905081600660006101000a81548173ffffffffffffffffffffffffffffffffffffffff021916908373ffffffffffffffffffffffffffffffffffffffff1602179055508173ffffffffffffffffffffffffffffffffffffffff168173ffffffffffffffffffffffffffffffffffffffff167f8be0079c531659141344cd1fd0a4f28419497f9722a3daafe3b4186f6b6457e060405160405180910390a35050565b8173ffffffffffffffffffffffffffffffffffffffff168373ffffffffffffffffffffffffffffffffffffffff16141561168c576040517f08c379a0000000000000000000000000000000000000000000000000000000008152600401611683906125fb565b60405180910390fd5b80600560008573ffffffffffffffffffffffffffffffffffffffff1673ffffffffffffffffffffffffffffffffffffffff16815260200190815260200160002060008473ffffffffffffffffffffffffffffffffffffffff1673ffffffffffffffffffffffffffffffffffffffff16815260200190815260200160002060006101000a81548160ff0219169083151502179055508173ffffffffffffffffffffffffffffffffffffffff168373ffffffffffffffffffffffffffffffffffffffff167f17307eab39ab6107e8899845ad3d59bd9653f200f220920489ca2b5937696c318360405161177d919061251e565b60405180910390a3505050565b611795848484611109565b6117a184848484611b56565b6117e0576040517f08c379a00000000000000000000000000000000000000000000000000000000081526004016117d79061255b565b60405180910390fd5b50505050565b6060600082141561182e576040518060400160405280600181526020017f3000000000000000000000000000000000000000000000000000000000000000815250905061198e565b600082905060005b6000821461186057808061184990612a52565b915050600a82611859919061287a565b9150611836565b60008167ffffffffffffffff8111156118a2577f4e487b7100000000000000000000000000000000000000000000000000000000600052604160045260246000fd5b6040519080825280601f01601f1916602001820160405280156118d45781602001600182028036833780820191505090505b5090505b60008514611987576001826118ed9190612905565b9150600a856118fc9190612a9b565b60306119089190612824565b60f81b818381518110611944577f4e487b7100000000000000000000000000000000000000000000000000000000600052603260045260246000fd5b60200101907effffffffffffffffffffffffffffffffffffffffffffffffffffffffffffff1916908160001a905350600a85611980919061287a565b94506118d8565b8093505050505b919050565b606060008251905060008114156119bc5760405180602001604052806000815250915050611b4c565b600060036002836119cd9190612824565b6119d7919061287a565b60046119e391906128ab565b905060006020826119f49190612824565b67ffffffffffffffff811115611a33577f4e487b7100000000000000000000000000000000000000000000000000000000600052604160045260246000fd5b6040519080825280601f01601f191660200182016040528015611a655781602001600182028036833780820191505090505b509050600060405180606001604052806040815260200161318d604091399050600181016020830160005b86811015611b095760038101905062ffffff818a015116603f8160121c168401518060081b905060ff603f83600c1c1686015116810190508060081b905060ff603f8360061c1686015116810190508060081b905060ff603f831686015116810190508060e01b90508084526004840193505050611a90565b506003860660018114611b235760028114611b3357611b3e565b613d3d60f01b6002830352611b3e565b603d60f81b60018303525b508484525050819450505050505b919050565b505050565b6000611b778473ffffffffffffffffffffffffffffffffffffffff16611ced565b15611ce0578373ffffffffffffffffffffffffffffffffffffffff1663150b7a02611ba0610f6a565b8786866040518563ffffffff1660e01b8152600401611bc294939291906124d2565b602060405180830381600087803b158015611bdc57600080fd5b505af1925050508015611c0d57506040513d601f19601f82011682018060405250810190611c0a9190611fa1565b60015b611c90573d8060008114611c3d576040519150601f19603f3d011682016040523d82523d6000602084013e611c42565b606091505b50600081511415611c88576040517f08c379a0000000000000000000000000000000000000000000000000000000008152600401611c7f9061255b565b60405180910390fd5b805181602001fd5b63150b7a0260e01b7bffffffffffffffffffffffffffffffffffffffffffffffffffffffff1916817bffffffffffffffffffffffffffffffffffffffffffffffffffffffff191614915050611ce5565b600190505b949350505050565b600080823b905060008111915050919050565b6000611d13611d0e8461279b565b612776565b905082815260208101848484011115611d2b57600080fd5b611d368482856129ad565b509392505050565b600081359050611d4d81613130565b92915050565b600081359050611d6281613147565b92915050565b600081359050611d778161315e565b92915050565b600081519050611d8c8161315e565b92915050565b600082601f830112611da357600080fd5b8135611db3848260208601611d00565b91505092915050565b600081359050611dcb81613175565b92915050565b600060208284031215611de357600080fd5b6000611df184828501611d3e565b91505092915050565b60008060408385031215611e0d57600080fd5b6000611e1b85828601611d3e565b9250506020611e2c85828601611d3e565b9150509250929050565b600080600060608486031215611e4b57600080fd5b6000611e5986828701611d3e565b9350506020611e6a86828701611d3e565b9250506040611e7b86828701611dbc565b9150509250925092565b60008060008060808587031215611e9b57600080fd5b6000611ea987828801611d3e565b9450506020611eba87828801611d3e565b9350506040611ecb87828801611dbc565b925050606085013567ffffffffffffffff811115611ee857600080fd5b611ef487828801611d92565b91505092959194509250565b60008060408385031215611f1357600080fd5b6000611f2185828601611d3e565b9250506020611f3285828601611d53565b9150509250929050565b60008060408385031215611f4f57600080fd5b6000611f5d85828601611d3e565b9250506020611f6e85828601611dbc565b9150509250929050565b600060208284031215611f8a57600080fd5b6000611f9884828501611d68565b91505092915050565b600060208284031215611fb357600080fd5b6000611fc184828501611d7d565b91505092915050565b600060208284031215611fdc57600080fd5b6000611fea84828501611dbc565b91505092915050565b611ffc81612939565b82525050565b61200b8161294b565b82525050565b600061201c826127e1565b61202681856127f7565b93506120368185602086016129bc565b61203f81612b88565b840191505092915050565b6000612055826127ec565b61205f8185612808565b935061206f8185602086016129bc565b61207881612b88565b840191505092915050565b600061208e826127ec565b6120988185612819565b93506120a88185602086016129bc565b80840191505092915050565b600081546120c1816129ef565b6120cb8186612819565b945060018216600081146120e657600181146120f75761212a565b60ff1983168652818601935061212a565b612100856127cc565b60005b8381101561212257815481890152600182019150602081019050612103565b838801955050505b50505092915050565b6000612140603283612808565b915061214b82612b99565b604082019050919050565b6000612163602683612808565b915061216e82612be8565b604082019050919050565b6000612186601c83612808565b915061219182612c37565b602082019050919050565b60006121a9602e83612808565b91506121b482612c60565b604082019050919050565b60006121cc602483612808565b91506121d782612caf565b604082019050919050565b60006121ef601983612808565b91506121fa82612cfe565b602082019050919050565b6000612212602c83612808565b915061221d82612d27565b604082019050919050565b6000612235603883612808565b915061224082612d76565b604082019050919050565b6000612258602a83612808565b915061226382612dc5565b604082019050919050565b600061227b602983612808565b915061228682612e14565b604082019050919050565b600061229e601683612819565b91506122a982612e63565b601682019050919050565b60006122c1600283612819565b91506122cc82612e8c565b600282019050919050565b60006122e4602083612808565b91506122ef82612eb5565b602082019050919050565b6000612307602c83612808565b915061231282612ede565b604082019050919050565b600061232a602083612808565b915061233582612f2d565b602082019050919050565b600061234d602983612808565b915061235882612f56565b604082019050919050565b6000612370602183612808565b915061237b82612fa5565b604082019050919050565b6000612393601d83612819565b915061239e82612ff4565b601d82019050919050565b60006123b6603183612808565b91506123c18261301d565b604082019050919050565b60006123d9606583612819565b91506123e48261306c565b606582019050919050565b60006123fc600483612819565b915061240782613107565b600482019050919050565b61241b816129a3565b82525050565b600061242d82856120b4565b91506124398284612083565b9150612444826123ef565b91508190509392505050565b600061245b82612291565b91506124678285612083565b9150612472826123cc565b915061247e8284612083565b9150612489826122b4565b91508190509392505050565b60006124a082612386565b91506124ac8284612083565b915081905092915050565b60006020820190506124cc6000830184611ff3565b92915050565b60006080820190506124e76000830187611ff3565b6124f46020830186611ff3565b6125016040830185612412565b81810360608301526125138184612011565b905095945050505050565b60006020820190506125336000830184612002565b92915050565b60006020820190508181036000830152612553818461204a565b905092915050565b6000602082019050818103600083015261257481612133565b9050919050565b6000602082019050818103600083015261259481612156565b9050919050565b600060208201905081810360008301526125b481612179565b9050919050565b600060208201905081810360008301526125d48161219c565b9050919050565b600060208201905081810360008301526125f4816121bf565b9050919050565b60006020820190508181036000830152612614816121e2565b9050919050565b6000602082019050818103600083015261263481612205565b9050919050565b6000602082019050818103600083015261265481612228565b9050919050565b600060208201905081810360008301526126748161224b565b9050919050565b600060208201905081810360008301526126948161226e565b9050919050565b600060208201905081810360008301526126b4816122d7565b9050919050565b600060208201905081810360008301526126d4816122fa565b9050919050565b600060208201905081810360008301526126f48161231d565b9050919050565b6000602082019050818103600083015261271481612340565b9050919050565b6000602082019050818103600083015261273481612363565b9050919050565b60006020820190508181036000830152612754816123a9565b9050919050565b60006020820190506127706000830184612412565b92915050565b6000612780612791565b905061278c8282612a21565b919050565b6000604051905090565b600067ffffffffffffffff8211156127b6576127b5612b59565b5b6127bf82612b88565b9050602081019050919050565b60008190508160005260206000209050919050565b600081519050919050565b600081519050919050565b600082825260208201905092915050565b600082825260208201905092915050565b600081905092915050565b600061282f826129a3565b915061283a836129a3565b9250827fffffffffffffffffffffffffffffffffffffffffffffffffffffffffffffffff0382111561286f5761286e612acc565b5b828201905092915050565b6000612885826129a3565b9150612890836129a3565b9250826128a05761289f612afb565b5b828204905092915050565b60006128b6826129a3565b91506128c1836129a3565b9250817fffffffffffffffffffffffffffffffffffffffffffffffffffffffffffffffff04831182151516156128fa576128f9612acc565b5b828202905092915050565b6000612910826129a3565b915061291b836129a3565b92508282101561292e5761292d612acc565b5b828203905092915050565b600061294482612983565b9050919050565b60008115159050919050565b60007fffffffff0000000000000000000000000000000000000000000000000000000082169050919050565b600073ffffffffffffffffffffffffffffffffffffffff82169050919050565b6000819050919050565b82818337600083830152505050565b60005b838110156129da5780820151818401526020810190506129bf565b838111156129e9576000848401525b50505050565b60006002820490506001821680612a0757607f821691505b60208210811415612a1b57612a1a612b2a565b5b50919050565b612a2a82612b88565b810181811067ffffffffffffffff82111715612a4957612a48612b59565b5b80604052505050565b6000612a5d826129a3565b91507fffffffffffffffffffffffffffffffffffffffffffffffffffffffffffffffff821415612a9057612a8f612acc565b5b600182019050919050565b6000612aa6826129a3565b9150612ab1836129a3565b925082612ac157612ac0612afb565b5b828206905092915050565b7f4e487b7100000000000000000000000000000000000000000000000000000000600052601160045260246000fd5b7f4e487b7100000000000000000000000000000000000000000000000000000000600052601260045260246000fd5b7f4e487b7100000000000000000000000000000000000000000000000000000000600052602260045260246000fd5b7f4e487b7100000000000000000000000000000000000000000000000000000000600052604160045260246000fd5b6000601f19601f8301169050919050565b7f4552433732313a207472616e7366657220746f206e6f6e20455243373231526560008201527f63656976657220696d706c656d656e7465720000000000000000000000000000602082015250565b7f4f776e61626c653a206e6577206f776e657220697320746865207a65726f206160008201527f6464726573730000000000000000000000000000000000000000000000000000602082015250565b7f4552433732313a20746f6b656e20616c7265616479206d696e74656400000000600082015250565b7f4d6f636b4e46543a3a746f6b656e5552492875696e74323536293a3a4e6f6e6560008201527f78697374656e7420746f6b656e21000000000000000000000000000000000000602082015250565b7f4552433732313a207472616e7366657220746f20746865207a65726f2061646460008201527f7265737300000000000000000000000000000000000000000000000000000000602082015250565b7f4552433732313a20617070726f766520746f2063616c6c657200000000000000600082015250565b7f4552433732313a206f70657261746f7220717565727920666f72206e6f6e657860008201527f697374656e7420746f6b656e0000000000000000000000000000000000000000602082015250565b7f4552433732313a20617070726f76652063616c6c6572206973206e6f74206f7760008201527f6e6572206e6f7220617070726f76656420666f7220616c6c0000000000000000602082015250565b7f4552433732313a2062616c616e636520717565727920666f7220746865207a6560008201527f726f206164647265737300000000000000000000000000000000000000000000602082015250565b7f4552433732313a206f776e657220717565727920666f72206e6f6e657869737460008201527f656e7420746f6b656e0000000000000000000000000000000000000000000000602082015250565b7f7b226e616d65223a20224e465434582050617373202300000000000000000000600082015250565b7f227d000000000000000000000000000000000000000000000000000000000000600082015250565b7f4552433732313a206d696e7420746f20746865207a65726f2061646472657373600082015250565b7f4552433732313a20617070726f76656420717565727920666f72206e6f6e657860008201527f697374656e7420746f6b656e0000000000000000000000000000000000000000602082015250565b7f4f776e61626c653a2063616c6c6572206973206e6f7420746865206f776e6572600082015250565b7f4552433732313a207472616e73666572206f6620746f6b656e2074686174206960008201527f73206e6f74206f776e0000000000000000000000000000000000000000000000602082015250565b7f4552433732313a20617070726f76616c20746f2063757272656e74206f776e6560008201527f7200000000000000000000000000000000000000000000000000000000000000602082015250565b7f646174613a6170706c69636174696f6e2f6a736f6e3b6261736536342c000000600082015250565b7f4552433732313a207472616e736665722063616c6c6572206973206e6f74206f60008201527f776e6572206e6f7220617070726f766564000000000000000000000000000000602082015250565b7f222c20226465736372697074696f6e223a20224e46543458206973205265646560008201527f656d61626c65204e465420736f20796f752063616e207475726e204e4654207460208201527f6f20616e797468696e6720696e207265616c206c69666521222c2022696d616760408201527f65223a2022000000000000000000000000000000000000000000000000000000606082015250565b7f2e6a706700000000000000000000000000000000000000000000000000000000600082015250565b61313981612939565b811461314457600080fd5b50565b6131508161294b565b811461315b57600080fd5b50565b61316781612957565b811461317257600080fd5b50565b61317e816129a3565b811461318957600080fd5b5056fe4142434445464748494a4b4c4d4e4f505152535455565758595a6162636465666768696a6b6c6d6e6f707172737475767778797a303132333435363738392b2fa2646970667358221220467cad198ca6a35b85ffba298b2bfb15dde2e05cd9369f103fb9efa3bebe686464736f6c6343000804003368747470733a2f2f676174657761792e70696e6174612e636c6f75642f697066732f516d5734596f416861743973426f484e5647414c5762587257377852386634426b6d6b73424272595566674763702f",
  "linkReferences": {},
  "deployedLinkReferences": {}
}