{
  "_format": "hh-sol-artifact-1",
  "contractName": "MockNFT",
  "sourceName": "contracts/mock/MockNFT.sol",
  "abi": [
    {
      "inputs": [],
      "stateMutability": "nonpayable",
      "type": "constructor"
    },
    {
      "anonymous": false,
      "inputs": [
        {
          "indexed": true,
          "internalType": "address",
          "name": "owner",
          "type": "address"
        },
        {
          "indexed": true,
          "internalType": "address",
          "name": "approved",
          "type": "address"
        },
        {
          "indexed": true,
          "internalType": "uint256",
          "name": "tokenId",
          "type": "uint256"
        }
      ],
      "name": "Approval",
      "type": "event"
    },
    {
      "anonymous": false,
      "inputs": [
        {
          "indexed": true,
          "internalType": "address",
          "name": "owner",
          "type": "address"
        },
        {
          "indexed": true,
          "internalType": "address",
          "name": "operator",
          "type": "address"
        },
        {
          "indexed": false,
          "internalType": "bool",
          "name": "approved",
          "type": "bool"
        }
      ],
      "name": "ApprovalForAll",
      "type": "event"
    },
    {
      "anonymous": false,
      "inputs": [
        {
          "indexed": true,
          "internalType": "address",
          "name": "previousOwner",
          "type": "address"
        },
        {
          "indexed": true,
          "internalType": "address",
          "name": "newOwner",
          "type": "address"
        }
      ],
      "name": "OwnershipTransferred",
      "type": "event"
    },
    {
      "anonymous": false,
      "inputs": [
        {
          "indexed": true,
          "internalType": "address",
          "name": "from",
          "type": "address"
        },
        {
          "indexed": true,
          "internalType": "address",
          "name": "to",
          "type": "address"
        },
        {
          "indexed": true,
          "internalType": "uint256",
          "name": "tokenId",
          "type": "uint256"
        }
      ],
      "name": "Transfer",
      "type": "event"
    },
    {
      "inputs": [
        {
          "internalType": "address",
          "name": "to",
          "type": "address"
        },
        {
          "internalType": "uint256",
          "name": "tokenId",
          "type": "uint256"
        }
      ],
      "name": "approve",
      "outputs": [],
      "stateMutability": "nonpayable",
      "type": "function"
    },
    {
      "inputs": [
        {
          "internalType": "address",
          "name": "owner",
          "type": "address"
        }
      ],
      "name": "balanceOf",
      "outputs": [
        {
          "internalType": "uint256",
          "name": "",
          "type": "uint256"
        }
      ],
      "stateMutability": "view",
      "type": "function"
    },
    {
      "inputs": [],
      "name": "baseURI",
      "outputs": [
        {
          "internalType": "string",
          "name": "",
          "type": "string"
        }
      ],
      "stateMutability": "view",
      "type": "function"
    },
    {
      "inputs": [
        {
          "internalType": "uint256",
          "name": "tokenId",
          "type": "uint256"
        }
      ],
      "name": "getApproved",
      "outputs": [
        {
          "internalType": "address",
          "name": "",
          "type": "address"
        }
      ],
      "stateMutability": "view",
      "type": "function"
    },
    {
      "inputs": [
        {
          "internalType": "address",
          "name": "owner",
          "type": "address"
        },
        {
          "internalType": "address",
          "name": "operator",
          "type": "address"
        }
      ],
      "name": "isApprovedForAll",
      "outputs": [
        {
          "internalType": "bool",
          "name": "",
          "type": "bool"
        }
      ],
      "stateMutability": "view",
      "type": "function"
    },
    {
      "inputs": [],
      "name": "maxSupply",
      "outputs": [
        {
          "internalType": "uint256",
          "name": "",
          "type": "uint256"
        }
      ],
      "stateMutability": "view",
      "type": "function"
    },
    {
      "inputs": [
        {
          "internalType": "address",
          "name": "to",
          "type": "address"
        }
      ],
      "name": "mint",
      "outputs": [],
      "stateMutability": "nonpayable",
      "type": "function"
    },
    {
      "inputs": [
        {
          "internalType": "address",
          "name": "to",
          "type": "address"
        },
        {
          "internalType": "uint256",
          "name": "amount",
          "type": "uint256"
        }
      ],
      "name": "mintTo",
      "outputs": [],
      "stateMutability": "nonpayable",
      "type": "function"
    },
    {
      "inputs": [],
      "name": "name",
      "outputs": [
        {
          "internalType": "string",
          "name": "",
          "type": "string"
        }
      ],
      "stateMutability": "view",
      "type": "function"
    },
    {
      "inputs": [],
      "name": "owner",
      "outputs": [
        {
          "internalType": "address",
          "name": "",
          "type": "address"
        }
      ],
      "stateMutability": "view",
      "type": "function"
    },
    {
      "inputs": [
        {
          "internalType": "uint256",
          "name": "tokenId",
          "type": "uint256"
        }
      ],
      "name": "ownerOf",
      "outputs": [
        {
          "internalType": "address",
          "name": "",
          "type": "address"
        }
      ],
      "stateMutability": "view",
      "type": "function"
    },
    {
      "inputs": [],
      "name": "renounceOwnership",
      "outputs": [],
      "stateMutability": "nonpayable",
      "type": "function"
    },
    {
      "inputs": [
        {
          "internalType": "address",
          "name": "from",
          "type": "address"
        },
        {
          "internalType": "address",
          "name": "to",
          "type": "address"
        },
        {
          "internalType": "uint256",
          "name": "tokenId",
          "type": "uint256"
        }
      ],
      "name": "safeTransferFrom",
      "outputs": [],
      "stateMutability": "nonpayable",
      "type": "function"
    },
    {
      "inputs": [
        {
          "internalType": "address",
          "name": "from",
          "type": "address"
        },
        {
          "internalType": "address",
          "name": "to",
          "type": "address"
        },
        {
          "internalType": "uint256",
          "name": "tokenId",
          "type": "uint256"
        },
        {
          "internalType": "bytes",
          "name": "_data",
          "type": "bytes"
        }
      ],
      "name": "safeTransferFrom",
      "outputs": [],
      "stateMutability": "nonpayable",
      "type": "function"
    },
    {
      "inputs": [
        {
          "internalType": "address",
          "name": "operator",
          "type": "address"
        },
        {
          "internalType": "bool",
          "name": "approved",
          "type": "bool"
        }
      ],
      "name": "setApprovalForAll",
      "outputs": [],
      "stateMutability": "nonpayable",
      "type": "function"
    },
    {
      "inputs": [
        {
          "internalType": "bytes4",
          "name": "interfaceId",
          "type": "bytes4"
        }
      ],
      "name": "supportsInterface",
      "outputs": [
        {
          "internalType": "bool",
          "name": "",
          "type": "bool"
        }
      ],
      "stateMutability": "view",
      "type": "function"
    },
    {
      "inputs": [],
      "name": "symbol",
      "outputs": [
        {
          "internalType": "string",
          "name": "",
          "type": "string"
        }
      ],
      "stateMutability": "view",
      "type": "function"
    },
    {
      "inputs": [
        {
          "internalType": "uint256",
          "name": "index",
          "type": "uint256"
        }
      ],
      "name": "tokenByIndex",
      "outputs": [
        {
          "internalType": "uint256",
          "name": "",
          "type": "uint256"
        }
      ],
      "stateMutability": "view",
      "type": "function"
    },
    {
      "inputs": [
        {
          "internalType": "address",
          "name": "owner",
          "type": "address"
        },
        {
          "internalType": "uint256",
          "name": "index",
          "type": "uint256"
        }
      ],
      "name": "tokenOfOwnerByIndex",
      "outputs": [
        {
          "internalType": "uint256",
          "name": "",
          "type": "uint256"
        }
      ],
      "stateMutability": "view",
      "type": "function"
    },
    {
      "inputs": [
        {
          "internalType": "uint256",
          "name": "tokenId",
          "type": "uint256"
        }
      ],
      "name": "tokenURI",
      "outputs": [
        {
          "internalType": "string",
          "name": "",
          "type": "string"
        }
      ],
      "stateMutability": "view",
      "type": "function"
    },
    {
      "inputs": [],
      "name": "totalSupply",
      "outputs": [
        {
          "internalType": "uint256",
          "name": "",
          "type": "uint256"
        }
      ],
      "stateMutability": "view",
      "type": "function"
    },
    {
      "inputs": [
        {
          "internalType": "address",
          "name": "from",
          "type": "address"
        },
        {
          "internalType": "address",
          "name": "to",
          "type": "address"
        },
        {
          "internalType": "uint256",
          "name": "tokenId",
          "type": "uint256"
        }
      ],
      "name": "transferFrom",
      "outputs": [],
      "stateMutability": "nonpayable",
      "type": "function"
    },
    {
      "inputs": [
        {
          "internalType": "address",
          "name": "newOwner",
          "type": "address"
        }
      ],
      "name": "transferOwnership",
      "outputs": [],
      "stateMutability": "nonpayable",
      "type": "function"
    }
  ],
  "bytecode": "0x60806040526101f4600b5560405180608001604052806051815260200162003d1760519139600d90805190602001906200003b929190620001de565b503480156200004957600080fd5b506040518060400160405280600881526020017f4f6e674e465434580000000000000000000000000000000000000000000000008152506040518060400160405280601281526020017f4e465420466f722058205b4f6e67416e675d00000000000000000000000000008152508160009080519060200190620000ce929190620001de565b508060019080519060200190620000e7929190620001de565b5050506200010a620000fe6200011060201b60201c565b6200011860201b60201c565b620002f3565b600033905090565b6000600a60009054906101000a900473ffffffffffffffffffffffffffffffffffffffff16905081600a60006101000a81548173ffffffffffffffffffffffffffffffffffffffff021916908373ffffffffffffffffffffffffffffffffffffffff1602179055508173ffffffffffffffffffffffffffffffffffffffff168173ffffffffffffffffffffffffffffffffffffffff167f8be0079c531659141344cd1fd0a4f28419497f9722a3daafe3b4186f6b6457e060405160405180910390a35050565b828054620001ec906200028e565b90600052602060002090601f0160209004810192826200021057600085556200025c565b82601f106200022b57805160ff19168380011785556200025c565b828001600101855582156200025c579182015b828111156200025b5782518255916020019190600101906200023e565b5b5090506200026b91906200026f565b5090565b5b808211156200028a57600081600090555060010162000270565b5090565b60006002820490506001821680620002a757607f821691505b60208210811415620002be57620002bd620002c4565b5b50919050565b7f4e487b7100000000000000000000000000000000000000000000000000000000600052602260045260246000fd5b613a1480620003036000396000f3fe608060405234801561001057600080fd5b506004361061014d5760003560e01c80636a627842116100c3578063a22cb4651161007c578063a22cb4651461039e578063b88d4fde146103ba578063c87b56dd146103d6578063d5abeb0114610406578063e985e9c514610424578063f2fde38b146104545761014d565b80636a627842146102ee5780636c0360eb1461030a57806370a0823114610328578063715018a6146103585780638da5cb5b1461036257806395d89b41146103805761014d565b806323b872dd1161011557806323b872dd1461020a5780632f745c591461022657806342842e0e14610256578063449a52f8146102725780634f6ccce71461028e5780636352211e146102be5761014d565b806301ffc9a71461015257806306fdde0314610182578063081812fc146101a0578063095ea7b3146101d057806318160ddd146101ec575b600080fd5b61016c60048036038101906101679190612666565b610470565b6040516101799190612c52565b60405180910390f35b61018a6104ea565b6040516101979190612c6d565b60405180910390f35b6101ba60048036038101906101b591906126b8565b61057c565b6040516101c79190612beb565b60405180910390f35b6101ea60048036038101906101e5919061262a565b610601565b005b6101f4610719565b6040516102019190612ecf565b60405180910390f35b610224600480360381019061021f9190612524565b610726565b005b610240600480360381019061023b919061262a565b610786565b60405161024d9190612ecf565b60405180910390f35b610270600480360381019061026b9190612524565b61082b565b005b61028c6004803603810190610287919061262a565b61084b565b005b6102a860048036038101906102a391906126b8565b610936565b6040516102b59190612ecf565b60405180910390f35b6102d860048036038101906102d391906126b8565b6109cd565b6040516102e59190612beb565b60405180910390f35b610308600480360381019061030391906124bf565b610a7f565b005b610312610a8d565b60405161031f9190612c6d565b60405180910390f35b610342600480360381019061033d91906124bf565b610b1b565b60405161034f9190612ecf565b60405180910390f35b610360610bd3565b005b61036a610c5b565b6040516103779190612beb565b60405180910390f35b610388610c85565b6040516103959190612c6d565b60405180910390f35b6103b860048036038101906103b391906125ee565b610d17565b005b6103d460048036038101906103cf9190612573565b610d2d565b005b6103f060048036038101906103eb91906126b8565b610d8f565b6040516103fd9190612c6d565b60405180910390f35b61040e610e82565b60405161041b9190612ecf565b60405180910390f35b61043e600480360381019061043991906124e8565b610e88565b60405161044b9190612c52565b60405180910390f35b61046e600480360381019061046991906124bf565b610f1c565b005b60007f780e9d63000000000000000000000000000000000000000000000000000000007bffffffffffffffffffffffffffffffffffffffffffffffffffffffff1916827bffffffffffffffffffffffffffffffffffffffffffffffffffffffff191614806104e357506104e282611014565b5b9050919050565b6060600080546104f990613163565b80601f016020809104026020016040519081016040528092919081815260200182805461052590613163565b80156105725780601f1061054757610100808354040283529160200191610572565b820191906000526020600020905b81548152906001019060200180831161055557829003601f168201915b5050505050905090565b6000610587826110f6565b6105c6576040517f08c379a00000000000000000000000000000000000000000000000000000000081526004016105bd90612e0f565b60405180910390fd5b6004600083815260200190815260200160002060009054906101000a900473ffffffffffffffffffffffffffffffffffffffff169050919050565b600061060c826109cd565b90508073ffffffffffffffffffffffffffffffffffffffff168373ffffffffffffffffffffffffffffffffffffffff16141561067d576040517f08c379a000000000000000000000000000000000000000000000000000000000815260040161067490612e6f565b60405180910390fd5b8073ffffffffffffffffffffffffffffffffffffffff1661069c611162565b73ffffffffffffffffffffffffffffffffffffffff1614806106cb57506106ca816106c5611162565b610e88565b5b61070a576040517f08c379a000000000000000000000000000000000000000000000000000000000815260040161070190612d8f565b60405180910390fd5b610714838361116a565b505050565b6000600880549050905090565b610737610731611162565b82611223565b610776576040517f08c379a000000000000000000000000000000000000000000000000000000000815260040161076d90612e8f565b60405180910390fd5b610781838383611301565b505050565b600061079183610b1b565b82106107d2576040517f08c379a00000000000000000000000000000000000000000000000000000000081526004016107c990612c8f565b60405180910390fd5b600660008473ffffffffffffffffffffffffffffffffffffffff1673ffffffffffffffffffffffffffffffffffffffff168152602001908152602001600020600083815260200190815260200160002054905092915050565b61084683838360405180602001604052806000815250610d2d565b505050565b610853611162565b73ffffffffffffffffffffffffffffffffffffffff16610871610c5b565b73ffffffffffffffffffffffffffffffffffffffff16146108c7576040517f08c379a00000000000000000000000000000000000000000000000000000000081526004016108be90612e2f565b60405180910390fd5b600b546001826108d7600c61155d565b6108e19190612f98565b6108eb9190613079565b11156108f657600080fd5b60005b81811015610931576109148361090f600c61155d565b61156b565b61091e600c611739565b8080610929906131c6565b9150506108f9565b505050565b6000610940610719565b8210610981576040517f08c379a000000000000000000000000000000000000000000000000000000000815260040161097890612eaf565b60405180910390fd5b600882815481106109bb577f4e487b7100000000000000000000000000000000000000000000000000000000600052603260045260246000fd5b90600052602060002001549050919050565b6000806002600084815260200190815260200160002060009054906101000a900473ffffffffffffffffffffffffffffffffffffffff169050600073ffffffffffffffffffffffffffffffffffffffff168173ffffffffffffffffffffffffffffffffffffffff161415610a76576040517f08c379a0000000000000000000000000000000000000000000000000000000008152600401610a6d90612dcf565b60405180910390fd5b80915050919050565b610a8a81600161084b565b50565b600d8054610a9a90613163565b80601f0160208091040260200160405190810160405280929190818152602001828054610ac690613163565b8015610b135780601f10610ae857610100808354040283529160200191610b13565b820191906000526020600020905b815481529060010190602001808311610af657829003601f168201915b505050505081565b60008073ffffffffffffffffffffffffffffffffffffffff168273ffffffffffffffffffffffffffffffffffffffff161415610b8c576040517f08c379a0000000000000000000000000000000000000000000000000000000008152600401610b8390612daf565b60405180910390fd5b600360008373ffffffffffffffffffffffffffffffffffffffff1673ffffffffffffffffffffffffffffffffffffffff168152602001908152602001600020549050919050565b610bdb611162565b73ffffffffffffffffffffffffffffffffffffffff16610bf9610c5b565b73ffffffffffffffffffffffffffffffffffffffff1614610c4f576040517f08c379a0000000000000000000000000000000000000000000000000000000008152600401610c4690612e2f565b60405180910390fd5b610c59600061174f565b565b6000600a60009054906101000a900473ffffffffffffffffffffffffffffffffffffffff16905090565b606060018054610c9490613163565b80601f0160208091040260200160405190810160405280929190818152602001828054610cc090613163565b8015610d0d5780601f10610ce257610100808354040283529160200191610d0d565b820191906000526020600020905b815481529060010190602001808311610cf057829003601f168201915b5050505050905090565b610d29610d22611162565b8383611815565b5050565b610d3e610d38611162565b83611223565b610d7d576040517f08c379a0000000000000000000000000000000000000000000000000000000008152600401610d7490612e8f565b60405180910390fd5b610d8984848484611982565b50505050565b6060610d9a826110f6565b610dd9576040517f08c379a0000000000000000000000000000000000000000000000000000000008152600401610dd090612d0f565b60405180910390fd5b6000600d610df2600385610ded919061320f565b6119de565b604051602001610e03929190612b55565b60405160208183030381529060405290506000610e54610e2e600186610e299190612f98565b6119de565b83604051602001610e40929190612b84565b604051602081830303815290604052611b8b565b905080604051602001610e679190612bc9565b60405160208183030381529060405291508192505050919050565b600b5481565b6000600560008473ffffffffffffffffffffffffffffffffffffffff1673ffffffffffffffffffffffffffffffffffffffff16815260200190815260200160002060008373ffffffffffffffffffffffffffffffffffffffff1673ffffffffffffffffffffffffffffffffffffffff16815260200190815260200160002060009054906101000a900460ff16905092915050565b610f24611162565b73ffffffffffffffffffffffffffffffffffffffff16610f42610c5b565b73ffffffffffffffffffffffffffffffffffffffff1614610f98576040517f08c379a0000000000000000000000000000000000000000000000000000000008152600401610f8f90612e2f565b60405180910390fd5b600073ffffffffffffffffffffffffffffffffffffffff168173ffffffffffffffffffffffffffffffffffffffff161415611008576040517f08c379a0000000000000000000000000000000000000000000000000000000008152600401610fff90612ccf565b60405180910390fd5b6110118161174f565b50565b60007f80ac58cd000000000000000000000000000000000000000000000000000000007bffffffffffffffffffffffffffffffffffffffffffffffffffffffff1916827bffffffffffffffffffffffffffffffffffffffffffffffffffffffff191614806110df57507f5b5e139f000000000000000000000000000000000000000000000000000000007bffffffffffffffffffffffffffffffffffffffffffffffffffffffff1916827bffffffffffffffffffffffffffffffffffffffffffffffffffffffff1916145b806110ef57506110ee82611d49565b5b9050919050565b60008073ffffffffffffffffffffffffffffffffffffffff166002600084815260200190815260200160002060009054906101000a900473ffffffffffffffffffffffffffffffffffffffff1673ffffffffffffffffffffffffffffffffffffffff1614159050919050565b600033905090565b816004600083815260200190815260200160002060006101000a81548173ffffffffffffffffffffffffffffffffffffffff021916908373ffffffffffffffffffffffffffffffffffffffff160217905550808273ffffffffffffffffffffffffffffffffffffffff166111dd836109cd565b73ffffffffffffffffffffffffffffffffffffffff167f8c5be1e5ebec7d5bd14f71427d1e84f3dd0314c0f7b2291e5b200ac8c7c3b92560405160405180910390a45050565b600061122e826110f6565b61126d576040517f08c379a000000000000000000000000000000000000000000000000000000000815260040161126490612d6f565b60405180910390fd5b6000611278836109cd565b90508073ffffffffffffffffffffffffffffffffffffffff168473ffffffffffffffffffffffffffffffffffffffff1614806112e757508373ffffffffffffffffffffffffffffffffffffffff166112cf8461057c565b73ffffffffffffffffffffffffffffffffffffffff16145b806112f857506112f78185610e88565b5b91505092915050565b8273ffffffffffffffffffffffffffffffffffffffff16611321826109cd565b73ffffffffffffffffffffffffffffffffffffffff1614611377576040517f08c379a000000000000000000000000000000000000000000000000000000000815260040161136e90612e4f565b60405180910390fd5b600073ffffffffffffffffffffffffffffffffffffffff168273ffffffffffffffffffffffffffffffffffffffff1614156113e7576040517f08c379a00000000000000000000000000000000000000000000000000000000081526004016113de90612d2f565b60405180910390fd5b6113f2838383611db3565b6113fd60008261116a565b6001600360008573ffffffffffffffffffffffffffffffffffffffff1673ffffffffffffffffffffffffffffffffffffffff168152602001908152602001600020600082825461144d9190613079565b925050819055506001600360008473ffffffffffffffffffffffffffffffffffffffff1673ffffffffffffffffffffffffffffffffffffffff16815260200190815260200160002060008282546114a49190612f98565b92505081905550816002600083815260200190815260200160002060006101000a81548173ffffffffffffffffffffffffffffffffffffffff021916908373ffffffffffffffffffffffffffffffffffffffff160217905550808273ffffffffffffffffffffffffffffffffffffffff168473ffffffffffffffffffffffffffffffffffffffff167fddf252ad1be2c89b69c2b068fc378daa952ba7f163c4a11628f55a4df523b3ef60405160405180910390a4505050565b600081600001549050919050565b600073ffffffffffffffffffffffffffffffffffffffff168273ffffffffffffffffffffffffffffffffffffffff1614156115db576040517f08c379a00000000000000000000000000000000000000000000000000000000081526004016115d290612def565b60405180910390fd5b6115e4816110f6565b15611624576040517f08c379a000000000000000000000000000000000000000000000000000000000815260040161161b90612cef565b60405180910390fd5b61163060008383611db3565b6001600360008473ffffffffffffffffffffffffffffffffffffffff1673ffffffffffffffffffffffffffffffffffffffff16815260200190815260200160002060008282546116809190612f98565b92505081905550816002600083815260200190815260200160002060006101000a81548173ffffffffffffffffffffffffffffffffffffffff021916908373ffffffffffffffffffffffffffffffffffffffff160217905550808273ffffffffffffffffffffffffffffffffffffffff16600073ffffffffffffffffffffffffffffffffffffffff167fddf252ad1be2c89b69c2b068fc378daa952ba7f163c4a11628f55a4df523b3ef60405160405180910390a45050565b6001816000016000828254019250508190555050565b6000600a60009054906101000a900473ffffffffffffffffffffffffffffffffffffffff16905081600a60006101000a81548173ffffffffffffffffffffffffffffffffffffffff021916908373ffffffffffffffffffffffffffffffffffffffff1602179055508173ffffffffffffffffffffffffffffffffffffffff168173ffffffffffffffffffffffffffffffffffffffff167f8be0079c531659141344cd1fd0a4f28419497f9722a3daafe3b4186f6b6457e060405160405180910390a35050565b8173ffffffffffffffffffffffffffffffffffffffff168373ffffffffffffffffffffffffffffffffffffffff161415611884576040517f08c379a000000000000000000000000000000000000000000000000000000000815260040161187b90612d4f565b60405180910390fd5b80600560008573ffffffffffffffffffffffffffffffffffffffff1673ffffffffffffffffffffffffffffffffffffffff16815260200190815260200160002060008473ffffffffffffffffffffffffffffffffffffffff1673ffffffffffffffffffffffffffffffffffffffff16815260200190815260200160002060006101000a81548160ff0219169083151502179055508173ffffffffffffffffffffffffffffffffffffffff168373ffffffffffffffffffffffffffffffffffffffff167f17307eab39ab6107e8899845ad3d59bd9653f200f220920489ca2b5937696c31836040516119759190612c52565b60405180910390a3505050565b61198d848484611301565b61199984848484611ec7565b6119d8576040517f08c379a00000000000000000000000000000000000000000000000000000000081526004016119cf90612caf565b60405180910390fd5b50505050565b60606000821415611a26576040518060400160405280600181526020017f30000000000000000000000000000000000000000000000000000000000000008152509050611b86565b600082905060005b60008214611a58578080611a41906131c6565b915050600a82611a519190612fee565b9150611a2e565b60008167ffffffffffffffff811115611a9a577f4e487b7100000000000000000000000000000000000000000000000000000000600052604160045260246000fd5b6040519080825280601f01601f191660200182016040528015611acc5781602001600182028036833780820191505090505b5090505b60008514611b7f57600182611ae59190613079565b9150600a85611af4919061320f565b6030611b009190612f98565b60f81b818381518110611b3c577f4e487b7100000000000000000000000000000000000000000000000000000000600052603260045260246000fd5b60200101907effffffffffffffffffffffffffffffffffffffffffffffffffffffffffffff1916908160001a905350600a85611b789190612fee565b9450611ad0565b8093505050505b919050565b60606000825190506000811415611bb45760405180602001604052806000815250915050611d44565b60006003600283611bc59190612f98565b611bcf9190612fee565b6004611bdb919061301f565b90506000602082611bec9190612f98565b67ffffffffffffffff811115611c2b577f4e487b7100000000000000000000000000000000000000000000000000000000600052604160045260246000fd5b6040519080825280601f01601f191660200182016040528015611c5d5781602001600182028036833780820191505090505b509050600060405180606001604052806040815260200161399f604091399050600181016020830160005b86811015611d015760038101905062ffffff818a015116603f8160121c168401518060081b905060ff603f83600c1c1686015116810190508060081b905060ff603f8360061c1686015116810190508060081b905060ff603f831686015116810190508060e01b90508084526004840193505050611c88565b506003860660018114611d1b5760028114611d2b57611d36565b613d3d60f01b6002830352611d36565b603d60f81b60018303525b508484525050819450505050505b919050565b60007f01ffc9a7000000000000000000000000000000000000000000000000000000007bffffffffffffffffffffffffffffffffffffffffffffffffffffffff1916827bffffffffffffffffffffffffffffffffffffffffffffffffffffffff1916149050919050565b611dbe83838361205e565b600073ffffffffffffffffffffffffffffffffffffffff168373ffffffffffffffffffffffffffffffffffffffff161415611e0157611dfc81612063565b611e40565b8173ffffffffffffffffffffffffffffffffffffffff168373ffffffffffffffffffffffffffffffffffffffff1614611e3f57611e3e83826120ac565b5b5b600073ffffffffffffffffffffffffffffffffffffffff168273ffffffffffffffffffffffffffffffffffffffff161415611e8357611e7e81612219565b611ec2565b8273ffffffffffffffffffffffffffffffffffffffff168273ffffffffffffffffffffffffffffffffffffffff1614611ec157611ec0828261235c565b5b5b505050565b6000611ee88473ffffffffffffffffffffffffffffffffffffffff166123db565b15612051578373ffffffffffffffffffffffffffffffffffffffff1663150b7a02611f11611162565b8786866040518563ffffffff1660e01b8152600401611f339493929190612c06565b602060405180830381600087803b158015611f4d57600080fd5b505af1925050508015611f7e57506040513d601f19601f82011682018060405250810190611f7b919061268f565b60015b612001573d8060008114611fae576040519150601f19603f3d011682016040523d82523d6000602084013e611fb3565b606091505b50600081511415611ff9576040517f08c379a0000000000000000000000000000000000000000000000000000000008152600401611ff090612caf565b60405180910390fd5b805181602001fd5b63150b7a0260e01b7bffffffffffffffffffffffffffffffffffffffffffffffffffffffff1916817bffffffffffffffffffffffffffffffffffffffffffffffffffffffff191614915050612056565b600190505b949350505050565b505050565b6008805490506009600083815260200190815260200160002081905550600881908060018154018082558091505060019003906000526020600020016000909190919091505550565b600060016120b984610b1b565b6120c39190613079565b90506000600760008481526020019081526020016000205490508181146121a8576000600660008673ffffffffffffffffffffffffffffffffffffffff1673ffffffffffffffffffffffffffffffffffffffff168152602001908152602001600020600084815260200190815260200160002054905080600660008773ffffffffffffffffffffffffffffffffffffffff1673ffffffffffffffffffffffffffffffffffffffff168152602001908152602001600020600084815260200190815260200160002081905550816007600083815260200190815260200160002081905550505b6007600084815260200190815260200160002060009055600660008573ffffffffffffffffffffffffffffffffffffffff1673ffffffffffffffffffffffffffffffffffffffff16815260200190815260200160002060008381526020019081526020016000206000905550505050565b6000600160088054905061222d9190613079565b9050600060096000848152602001908152602001600020549050600060088381548110612283577f4e487b7100000000000000000000000000000000000000000000000000000000600052603260045260246000fd5b9060005260206000200154905080600883815481106122cb577f4e487b7100000000000000000000000000000000000000000000000000000000600052603260045260246000fd5b906000526020600020018190555081600960008381526020019081526020016000208190555060096000858152602001908152602001600020600090556008805480612340577f4e487b7100000000000000000000000000000000000000000000000000000000600052603160045260246000fd5b6001900381819060005260206000200160009055905550505050565b600061236783610b1b565b905081600660008573ffffffffffffffffffffffffffffffffffffffff1673ffffffffffffffffffffffffffffffffffffffff168152602001908152602001600020600083815260200190815260200160002081905550806007600084815260200190815260200160002081905550505050565b600080823b905060008111915050919050565b60006124016123fc84612f0f565b612eea565b90508281526020810184848401111561241957600080fd5b612424848285613121565b509392505050565b60008135905061243b81613942565b92915050565b60008135905061245081613959565b92915050565b60008135905061246581613970565b92915050565b60008151905061247a81613970565b92915050565b600082601f83011261249157600080fd5b81356124a18482602086016123ee565b91505092915050565b6000813590506124b981613987565b92915050565b6000602082840312156124d157600080fd5b60006124df8482850161242c565b91505092915050565b600080604083850312156124fb57600080fd5b60006125098582860161242c565b925050602061251a8582860161242c565b9150509250929050565b60008060006060848603121561253957600080fd5b60006125478682870161242c565b93505060206125588682870161242c565b9250506040612569868287016124aa565b9150509250925092565b6000806000806080858703121561258957600080fd5b60006125978782880161242c565b94505060206125a88782880161242c565b93505060406125b9878288016124aa565b925050606085013567ffffffffffffffff8111156125d657600080fd5b6125e287828801612480565b91505092959194509250565b6000806040838503121561260157600080fd5b600061260f8582860161242c565b925050602061262085828601612441565b9150509250929050565b6000806040838503121561263d57600080fd5b600061264b8582860161242c565b925050602061265c858286016124aa565b9150509250929050565b60006020828403121561267857600080fd5b600061268684828501612456565b91505092915050565b6000602082840312156126a157600080fd5b60006126af8482850161246b565b91505092915050565b6000602082840312156126ca57600080fd5b60006126d8848285016124aa565b91505092915050565b6126ea816130ad565b82525050565b6126f9816130bf565b82525050565b600061270a82612f55565b6127148185612f6b565b9350612724818560208601613130565b61272d816132fc565b840191505092915050565b600061274382612f60565b61274d8185612f7c565b935061275d818560208601613130565b612766816132fc565b840191505092915050565b600061277c82612f60565b6127868185612f8d565b9350612796818560208601613130565b80840191505092915050565b600081546127af81613163565b6127b98186612f8d565b945060018216600081146127d457600181146127e557612818565b60ff19831686528186019350612818565b6127ee85612f40565b60005b83811015612810578154818901526001820191506020810190506127f1565b838801955050505b50505092915050565b600061282e602b83612f7c565b91506128398261330d565b604082019050919050565b6000612851603283612f7c565b915061285c8261335c565b604082019050919050565b6000612874602683612f7c565b915061287f826133ab565b604082019050919050565b6000612897601c83612f7c565b91506128a2826133fa565b602082019050919050565b60006128ba601483612f8d565b91506128c582613423565b601482019050919050565b60006128dd602e83612f7c565b91506128e88261344c565b604082019050919050565b6000612900602483612f7c565b915061290b8261349b565b604082019050919050565b6000612923601983612f7c565b915061292e826134ea565b602082019050919050565b6000612946602c83612f7c565b915061295182613513565b604082019050919050565b6000612969603883612f7c565b915061297482613562565b604082019050919050565b600061298c602a83612f7c565b9150612997826135b1565b604082019050919050565b60006129af602983612f7c565b91506129ba82613600565b604082019050919050565b60006129d2600283612f8d565b91506129dd8261364f565b600282019050919050565b60006129f5602083612f7c565b9150612a0082613678565b602082019050919050565b6000612a18602c83612f7c565b9150612a23826136a1565b604082019050919050565b6000612a3b602083612f7c565b9150612a46826136f0565b602082019050919050565b6000612a5e602983612f7c565b9150612a6982613719565b604082019050919050565b6000612a81602183612f7c565b9150612a8c82613768565b604082019050919050565b6000612aa4601d83612f8d565b9150612aaf826137b7565b601d82019050919050565b6000612ac7603183612f7c565b9150612ad2826137e0565b604082019050919050565b6000612aea602c83612f7c565b9150612af58261382f565b604082019050919050565b6000612b0d606583612f8d565b9150612b188261387e565b606582019050919050565b6000612b30600483612f8d565b9150612b3b82613919565b600482019050919050565b612b4f81613117565b82525050565b6000612b6182856127a2565b9150612b6d8284612771565b9150612b7882612b23565b91508190509392505050565b6000612b8f826128ad565b9150612b9b8285612771565b9150612ba682612b00565b9150612bb28284612771565b9150612bbd826129c5565b91508190509392505050565b6000612bd482612a97565b9150612be08284612771565b915081905092915050565b6000602082019050612c0060008301846126e1565b92915050565b6000608082019050612c1b60008301876126e1565b612c2860208301866126e1565b612c356040830185612b46565b8181036060830152612c4781846126ff565b905095945050505050565b6000602082019050612c6760008301846126f0565b92915050565b60006020820190508181036000830152612c878184612738565b905092915050565b60006020820190508181036000830152612ca881612821565b9050919050565b60006020820190508181036000830152612cc881612844565b9050919050565b60006020820190508181036000830152612ce881612867565b9050919050565b60006020820190508181036000830152612d088161288a565b9050919050565b60006020820190508181036000830152612d28816128d0565b9050919050565b60006020820190508181036000830152612d48816128f3565b9050919050565b60006020820190508181036000830152612d6881612916565b9050919050565b60006020820190508181036000830152612d8881612939565b9050919050565b60006020820190508181036000830152612da88161295c565b9050919050565b60006020820190508181036000830152612dc88161297f565b9050919050565b60006020820190508181036000830152612de8816129a2565b9050919050565b60006020820190508181036000830152612e08816129e8565b9050919050565b60006020820190508181036000830152612e2881612a0b565b9050919050565b60006020820190508181036000830152612e4881612a2e565b9050919050565b60006020820190508181036000830152612e6881612a51565b9050919050565b60006020820190508181036000830152612e8881612a74565b9050919050565b60006020820190508181036000830152612ea881612aba565b9050919050565b60006020820190508181036000830152612ec881612add565b9050919050565b6000602082019050612ee46000830184612b46565b92915050565b6000612ef4612f05565b9050612f008282613195565b919050565b6000604051905090565b600067ffffffffffffffff821115612f2a57612f296132cd565b5b612f33826132fc565b9050602081019050919050565b60008190508160005260206000209050919050565b600081519050919050565b600081519050919050565b600082825260208201905092915050565b600082825260208201905092915050565b600081905092915050565b6000612fa382613117565b9150612fae83613117565b9250827fffffffffffffffffffffffffffffffffffffffffffffffffffffffffffffffff03821115612fe357612fe2613240565b5b828201905092915050565b6000612ff982613117565b915061300483613117565b9250826130145761301361326f565b5b828204905092915050565b600061302a82613117565b915061303583613117565b9250817fffffffffffffffffffffffffffffffffffffffffffffffffffffffffffffffff048311821515161561306e5761306d613240565b5b828202905092915050565b600061308482613117565b915061308f83613117565b9250828210156130a2576130a1613240565b5b828203905092915050565b60006130b8826130f7565b9050919050565b60008115159050919050565b60007fffffffff0000000000000000000000000000000000000000000000000000000082169050919050565b600073ffffffffffffffffffffffffffffffffffffffff82169050919050565b6000819050919050565b82818337600083830152505050565b60005b8381101561314e578082015181840152602081019050613133565b8381111561315d576000848401525b50505050565b6000600282049050600182168061317b57607f821691505b6020821081141561318f5761318e61329e565b5b50919050565b61319e826132fc565b810181811067ffffffffffffffff821117156131bd576131bc6132cd565b5b80604052505050565b60006131d182613117565b91507fffffffffffffffffffffffffffffffffffffffffffffffffffffffffffffffff82141561320457613203613240565b5b600182019050919050565b600061321a82613117565b915061322583613117565b9250826132355761323461326f565b5b828206905092915050565b7f4e487b7100000000000000000000000000000000000000000000000000000000600052601160045260246000fd5b7f4e487b7100000000000000000000000000000000000000000000000000000000600052601260045260246000fd5b7f4e487b7100000000000000000000000000000000000000000000000000000000600052602260045260246000fd5b7f4e487b7100000000000000000000000000000000000000000000000000000000600052604160045260246000fd5b6000601f19601f8301169050919050565b7f455243373231456e756d657261626c653a206f776e657220696e646578206f7560008201527f74206f6620626f756e6473000000000000000000000000000000000000000000602082015250565b7f4552433732313a207472616e7366657220746f206e6f6e20455243373231526560008201527f63656976657220696d706c656d656e7465720000000000000000000000000000602082015250565b7f4f776e61626c653a206e6577206f776e657220697320746865207a65726f206160008201527f6464726573730000000000000000000000000000000000000000000000000000602082015250565b7f4552433732313a20746f6b656e20616c7265616479206d696e74656400000000600082015250565b7f7b226e616d65223a20224f6e674e465434582023000000000000000000000000600082015250565b7f4d6f636b4e46543a3a746f6b656e5552492875696e74323536293a3a4e6f6e6560008201527f78697374656e7420746f6b656e21000000000000000000000000000000000000602082015250565b7f4552433732313a207472616e7366657220746f20746865207a65726f2061646460008201527f7265737300000000000000000000000000000000000000000000000000000000602082015250565b7f4552433732313a20617070726f766520746f2063616c6c657200000000000000600082015250565b7f4552433732313a206f70657261746f7220717565727920666f72206e6f6e657860008201527f697374656e7420746f6b656e0000000000000000000000000000000000000000602082015250565b7f4552433732313a20617070726f76652063616c6c6572206973206e6f74206f7760008201527f6e6572206e6f7220617070726f76656420666f7220616c6c0000000000000000602082015250565b7f4552433732313a2062616c616e636520717565727920666f7220746865207a6560008201527f726f206164647265737300000000000000000000000000000000000000000000602082015250565b7f4552433732313a206f776e657220717565727920666f72206e6f6e657869737460008201527f656e7420746f6b656e0000000000000000000000000000000000000000000000602082015250565b7f227d000000000000000000000000000000000000000000000000000000000000600082015250565b7f4552433732313a206d696e7420746f20746865207a65726f2061646472657373600082015250565b7f4552433732313a20617070726f76656420717565727920666f72206e6f6e657860008201527f697374656e7420746f6b656e0000000000000000000000000000000000000000602082015250565b7f4f776e61626c653a2063616c6c6572206973206e6f7420746865206f776e6572600082015250565b7f4552433732313a207472616e73666572206f6620746f6b656e2074686174206960008201527f73206e6f74206f776e0000000000000000000000000000000000000000000000602082015250565b7f4552433732313a20617070726f76616c20746f2063757272656e74206f776e6560008201527f7200000000000000000000000000000000000000000000000000000000000000602082015250565b7f646174613a6170706c69636174696f6e2f6a736f6e3b6261736536342c000000600082015250565b7f4552433732313a207472616e736665722063616c6c6572206973206e6f74206f60008201527f776e6572206e6f7220617070726f766564000000000000000000000000000000602082015250565b7f455243373231456e756d657261626c653a20676c6f62616c20696e646578206f60008201527f7574206f6620626f756e64730000000000000000000000000000000000000000602082015250565b7f222c20226465736372697074696f6e223a20224e46543458206973205265646560008201527f656d61626c65204e465420736f20796f752063616e207475726e204e4654207460208201527f6f20616e797468696e6720696e207265616c206c69666521222c2022696d616760408201527f65223a2022000000000000000000000000000000000000000000000000000000606082015250565b7f2e6a706700000000000000000000000000000000000000000000000000000000600082015250565b61394b816130ad565b811461395657600080fd5b50565b613962816130bf565b811461396d57600080fd5b50565b613979816130cb565b811461398457600080fd5b50565b61399081613117565b811461399b57600080fd5b5056fe4142434445464748494a4b4c4d4e4f505152535455565758595a6162636465666768696a6b6c6d6e6f707172737475767778797a303132333435363738392b2fa2646970667358221220a4772fc00c24831303bfd2b664d5160c81ebdca61218e1fc1ba597d1eab64b9564736f6c6343000804003368747470733a2f2f676174657761792e70696e6174612e636c6f75642f697066732f516d5734596f416861743973426f484e5647414c5762587257377852386634426b6d6b73424272595566674763702f",
  "linkReferences": {},
  "deployedLinkReferences": {}
}