{
  "_format": "hh-sol-artifact-1",
  "contractName": "NFTForX",
  "sourceName": "contracts/NFTForX.sol",
  "abi": [
    {
      "inputs": [
        {
          "internalType": "address",
          "name": "__owner",
          "type": "address"
        },
        {
          "internalType": "address",
          "name": "__collection",
          "type": "address"
        },
        {
          "internalType": "uint256",
          "name": "__maxRedeemPerUser",
          "type": "uint256"
        }
      ],
      "stateMutability": "nonpayable",
      "type": "constructor"
    },
    {
      "anonymous": false,
      "inputs": [
        {
          "indexed": false,
          "internalType": "address",
          "name": "redeeemer",
          "type": "address"
        },
        {
          "indexed": false,
          "internalType": "uint256",
          "name": "tokenId",
          "type": "uint256"
        },
        {
          "indexed": false,
          "internalType": "uint256",
          "name": "option",
          "type": "uint256"
        }
      ],
      "name": "Redeem",
      "type": "event"
    },
    {
      "inputs": [],
      "name": "collection",
      "outputs": [
        {
          "internalType": "address",
          "name": "",
          "type": "address"
        }
      ],
      "stateMutability": "view",
      "type": "function"
    },
    {
      "inputs": [],
      "name": "maxRedeemPerUser",
      "outputs": [
        {
          "internalType": "uint256",
          "name": "",
          "type": "uint256"
        }
      ],
      "stateMutability": "view",
      "type": "function"
    },
    {
      "inputs": [],
      "name": "owner",
      "outputs": [
        {
          "internalType": "address",
          "name": "",
          "type": "address"
        }
      ],
      "stateMutability": "view",
      "type": "function"
    },
    {
      "inputs": [
        {
          "internalType": "uint256",
          "name": "tokenId",
          "type": "uint256"
        },
        {
          "internalType": "uint256",
          "name": "optionId",
          "type": "uint256"
        }
      ],
      "name": "redeem",
      "outputs": [
        {
          "internalType": "uint256",
          "name": "",
          "type": "uint256"
        }
      ],
      "stateMutability": "nonpayable",
      "type": "function"
    },
    {
      "inputs": [
        {
          "internalType": "address",
          "name": "",
          "type": "address"
        }
      ],
      "name": "redeemCount",
      "outputs": [
        {
          "internalType": "uint256",
          "name": "",
          "type": "uint256"
        }
      ],
      "stateMutability": "view",
      "type": "function"
    },
    {
      "inputs": [
        {
          "internalType": "uint256",
          "name": "",
          "type": "uint256"
        }
      ],
      "name": "redeemFor",
      "outputs": [
        {
          "internalType": "uint256",
          "name": "",
          "type": "uint256"
        }
      ],
      "stateMutability": "view",
      "type": "function"
    },
    {
      "inputs": [
        {
          "internalType": "uint256",
          "name": "",
          "type": "uint256"
        }
      ],
      "name": "userRedeem",
      "outputs": [
        {
          "internalType": "address",
          "name": "",
          "type": "address"
        }
      ],
      "stateMutability": "view",
      "type": "function"
    },
    {
      "inputs": [
        {
          "internalType": "address",
          "name": "userAddr",
          "type": "address"
        }
      ],
      "name": "userRedeemCount",
      "outputs": [
        {
          "internalType": "uint256",
          "name": "",
          "type": "uint256"
        }
      ],
      "stateMutability": "view",
      "type": "function"
    }
  ],
  "bytecode": "0x608060405234801561001057600080fd5b50604051610b84380380610b84833981810160405281019061003291906100ed565b82600160006101000a81548173ffffffffffffffffffffffffffffffffffffffff021916908373ffffffffffffffffffffffffffffffffffffffff16021790555081600260006101000a81548173ffffffffffffffffffffffffffffffffffffffff021916908373ffffffffffffffffffffffffffffffffffffffff160217905550806000819055505050506101a6565b6000815190506100d281610178565b92915050565b6000815190506100e78161018f565b92915050565b60008060006060848603121561010257600080fd5b6000610110868287016100c3565b9350506020610121868287016100c3565b9250506040610132868287016100d8565b9150509250925092565b60006101478261014e565b9050919050565b600073ffffffffffffffffffffffffffffffffffffffff82169050919050565b6000819050919050565b6101818161013c565b811461018c57600080fd5b50565b6101988161016e565b81146101a357600080fd5b50565b6109cf806101b56000396000f3fe608060405234801561001057600080fd5b50600436106100885760003560e01c80638da5cb5b1161005b5780638da5cb5b146101295780639025fe9f14610147578063a3046b9414610177578063ee8f16d8146101a757610088565b8063518e35891461008d578063762a8f4c146100bd5780637cbc2373146100db5780637de1e5361461010b575b600080fd5b6100a760048036038101906100a291906105df565b6101d7565b6040516100b491906107dd565b60405180910390f35b6100c56101ef565b6040516100d291906107dd565b60405180910390f35b6100f560048036038101906100f09190610631565b6101f8565b60405161010291906107dd565b60405180910390f35b6101136104cd565b60405161012091906106f4565b60405180910390f35b6101316104f7565b60405161013e91906106f4565b60405180910390f35b610161600480360381019061015c9190610608565b610521565b60405161016e91906107dd565b60405180910390f35b610191600480360381019061018c9190610608565b610539565b60405161019e91906106f4565b60405180910390f35b6101c160048036038101906101bc91906105df565b61056c565b6040516101ce91906107dd565b60405180910390f35b60056020528060005260406000206000915090505481565b60008054905090565b60003373ffffffffffffffffffffffffffffffffffffffff166102196104f7565b73ffffffffffffffffffffffffffffffffffffffff161415610270576040517f08c379a00000000000000000000000000000000000000000000000000000000081526004016102679061077d565b60405180910390fd5b600061027b3361056c565b90506000548111156102c2576040517f08c379a00000000000000000000000000000000000000000000000000000000081526004016102b99061079d565b60405180910390fd5b83600073ffffffffffffffffffffffffffffffffffffffff166003600083815260200190815260200160002060009054906101000a900473ffffffffffffffffffffffffffffffffffffffff1673ffffffffffffffffffffffffffffffffffffffff1614610365576040517f08c379a000000000000000000000000000000000000000000000000000000000815260040161035c906107bd565b60405180910390fd5b600260009054906101000a900473ffffffffffffffffffffffffffffffffffffffff1673ffffffffffffffffffffffffffffffffffffffff166342842e0e33600160009054906101000a900473ffffffffffffffffffffffffffffffffffffffff16886040518463ffffffff1660e01b81526004016103e69392919061070f565b600060405180830381600087803b15801561040057600080fd5b505af1158015610414573d6000803e3d6000fd5b505050508360046000878152602001908152602001600020819055506001600560003373ffffffffffffffffffffffffffffffffffffffff1673ffffffffffffffffffffffffffffffffffffffff16815260200190815260200160002060008282546104809190610809565b925050819055507fe5b754fb1abb7f01b499791d0b820ae3b6af3424ac1c59768edb53f4ec31a9293386866040516104ba93929190610746565b60405180910390a1849250505092915050565b6000600260009054906101000a900473ffffffffffffffffffffffffffffffffffffffff16905090565b6000600160009054906101000a900473ffffffffffffffffffffffffffffffffffffffff16905090565b60046020528060005260406000206000915090505481565b60036020528060005260406000206000915054906101000a900473ffffffffffffffffffffffffffffffffffffffff1681565b6000600560008373ffffffffffffffffffffffffffffffffffffffff1673ffffffffffffffffffffffffffffffffffffffff168152602001908152602001600020549050919050565b6000813590506105c48161096b565b92915050565b6000813590506105d981610982565b92915050565b6000602082840312156105f157600080fd5b60006105ff848285016105b5565b91505092915050565b60006020828403121561061a57600080fd5b6000610628848285016105ca565b91505092915050565b6000806040838503121561064457600080fd5b6000610652858286016105ca565b9250506020610663858286016105ca565b9150509250929050565b6106768161085f565b82525050565b60006106896013836107f8565b9150610694826108ca565b602082019050919050565b60006106ac601b836107f8565b91506106b7826108f3565b602082019050919050565b60006106cf6026836107f8565b91506106da8261091c565b604082019050919050565b6106ee81610891565b82525050565b6000602082019050610709600083018461066d565b92915050565b6000606082019050610724600083018661066d565b610731602083018561066d565b61073e60408301846106e5565b949350505050565b600060608201905061075b600083018661066d565b61076860208301856106e5565b61077560408301846106e5565b949350505050565b600060208201905081810360008301526107968161067c565b9050919050565b600060208201905081810360008301526107b68161069f565b9050919050565b600060208201905081810360008301526107d6816106c2565b9050919050565b60006020820190506107f260008301846106e5565b92915050565b600082825260208201905092915050565b600061081482610891565b915061081f83610891565b9250827fffffffffffffffffffffffffffffffffffffffffffffffffffffffffffffffff038211156108545761085361089b565b5b828201905092915050565b600061086a82610871565b9050919050565b600073ffffffffffffffffffffffffffffffffffffffff82169050919050565b6000819050919050565b7f4e487b7100000000000000000000000000000000000000000000000000000000600052601160045260246000fd5b7f43616c6c6572206973206e6f74206f776e657200000000000000000000000000600082015250565b7f43616c6c6572206578636565642072656465656d206c696d69742e0000000000600082015250565b7f43616c6c657220747279696e6720746f2072656465656d2072656465656d656460008201527f20746f6b656e0000000000000000000000000000000000000000000000000000602082015250565b6109748161085f565b811461097f57600080fd5b50565b61098b81610891565b811461099657600080fd5b5056fea26469706673582212203912a3973851704b3abdf6c064e02f9f232e7461c43651c0bb200deaf64472a664736f6c63430008040033",
  "linkReferences": {},
  "deployedLinkReferences": {}
}