{
  "_format": "hh-sol-artifact-1",
  "contractName": "NFTForX",
  "sourceName": "contracts/NFTForX.sol",
  "abi": [
    {
      "inputs": [
        {
          "internalType": "address",
          "name": "__owner",
          "type": "address"
        },
        {
          "internalType": "address",
          "name": "__collection",
          "type": "address"
        },
        {
          "internalType": "uint256",
          "name": "__maxRedeemPerUser",
          "type": "uint256"
        }
      ],
      "stateMutability": "nonpayable",
      "type": "constructor"
    },
    {
      "anonymous": false,
      "inputs": [
        {
          "indexed": false,
          "internalType": "address",
          "name": "redeeemer",
          "type": "address"
        },
        {
          "indexed": false,
          "internalType": "uint256",
          "name": "tokenId",
          "type": "uint256"
        },
        {
          "indexed": false,
          "internalType": "uint256",
          "name": "option",
          "type": "uint256"
        }
      ],
      "name": "Redeem",
      "type": "event"
    },
    {
      "inputs": [],
      "name": "collection",
      "outputs": [
        {
          "internalType": "address",
          "name": "",
          "type": "address"
        }
      ],
      "stateMutability": "view",
      "type": "function"
    },
    {
      "inputs": [
        {
          "internalType": "address",
          "name": "userAddr",
          "type": "address"
        }
      ],
      "name": "getUserRedeem",
      "outputs": [
        {
          "internalType": "uint256[]",
          "name": "",
          "type": "uint256[]"
        }
      ],
      "stateMutability": "view",
      "type": "function"
    },
    {
      "inputs": [],
      "name": "maxRedeemPerUser",
      "outputs": [
        {
          "internalType": "uint256",
          "name": "",
          "type": "uint256"
        }
      ],
      "stateMutability": "view",
      "type": "function"
    },
    {
      "inputs": [],
      "name": "owner",
      "outputs": [
        {
          "internalType": "address",
          "name": "",
          "type": "address"
        }
      ],
      "stateMutability": "view",
      "type": "function"
    },
    {
      "inputs": [
        {
          "internalType": "uint256",
          "name": "tokenId",
          "type": "uint256"
        },
        {
          "internalType": "uint256",
          "name": "optionId",
          "type": "uint256"
        }
      ],
      "name": "redeem",
      "outputs": [
        {
          "internalType": "uint256",
          "name": "",
          "type": "uint256"
        }
      ],
      "stateMutability": "nonpayable",
      "type": "function"
    },
    {
      "inputs": [
        {
          "internalType": "address",
          "name": "",
          "type": "address"
        }
      ],
      "name": "redeemCount",
      "outputs": [
        {
          "internalType": "uint256",
          "name": "",
          "type": "uint256"
        }
      ],
      "stateMutability": "view",
      "type": "function"
    },
    {
      "inputs": [
        {
          "internalType": "uint256",
          "name": "",
          "type": "uint256"
        }
      ],
      "name": "redeemFor",
      "outputs": [
        {
          "internalType": "uint256",
          "name": "",
          "type": "uint256"
        }
      ],
      "stateMutability": "view",
      "type": "function"
    },
    {
      "inputs": [
        {
          "internalType": "address",
          "name": "",
          "type": "address"
        },
        {
          "internalType": "uint256",
          "name": "",
          "type": "uint256"
        }
      ],
      "name": "userRedeem",
      "outputs": [
        {
          "internalType": "uint256",
          "name": "",
          "type": "uint256"
        }
      ],
      "stateMutability": "view",
      "type": "function"
    },
    {
      "inputs": [
        {
          "internalType": "address",
          "name": "userAddr",
          "type": "address"
        }
      ],
      "name": "userRedeemCount",
      "outputs": [
        {
          "internalType": "uint256",
          "name": "",
          "type": "uint256"
        }
      ],
      "stateMutability": "view",
      "type": "function"
    }
  ],
  "bytecode": "0x60806040523480156200001157600080fd5b5060405162000da338038062000da38339818101604052810190620000379190620000f7565b82600160006101000a81548173ffffffffffffffffffffffffffffffffffffffff021916908373ffffffffffffffffffffffffffffffffffffffff16021790555081600260006101000a81548173ffffffffffffffffffffffffffffffffffffffff021916908373ffffffffffffffffffffffffffffffffffffffff16021790555080600081905550505050620001bf565b600081519050620000da816200018b565b92915050565b600081519050620000f181620001a5565b92915050565b6000806000606084860312156200010d57600080fd5b60006200011d86828701620000c9565b93505060206200013086828701620000c9565b92505060406200014386828701620000e0565b9150509250925092565b60006200015a8262000161565b9050919050565b600073ffffffffffffffffffffffffffffffffffffffff82169050919050565b6000819050919050565b62000196816200014d565b8114620001a257600080fd5b50565b620001b08162000181565b8114620001bc57600080fd5b50565b610bd480620001cf6000396000f3fe608060405234801561001057600080fd5b50600436106100925760003560e01c80637cbc2373116100665780637cbc2373146101455780637de1e536146101755780638da5cb5b146101935780639025fe9f146101b1578063ee8f16d8146101e157610092565b80624e775314610097578063518e3589146100c7578063682a23e0146100f7578063762a8f4c14610127575b600080fd5b6100b160048036038101906100ac91906106f1565b610211565b6040516100be91906109a9565b60405180910390f35b6100e160048036038101906100dc91906106c8565b610242565b6040516100ee91906109a9565b60405180910390f35b610111600480360381019061010c91906106c8565b61025a565b60405161011e9190610927565b60405180910390f35b61012f6102f1565b60405161013c91906109a9565b60405180910390f35b61015f600480360381019061015a9190610756565b6102fa565b60405161016c91906109a9565b60405180910390f35b61017d6105e9565b60405161018a919061089e565b60405180910390f35b61019b610613565b6040516101a8919061089e565b60405180910390f35b6101cb60048036038101906101c6919061072d565b61063d565b6040516101d891906109a9565b60405180910390f35b6101fb60048036038101906101f691906106c8565b610655565b60405161020891906109a9565b60405180910390f35b6003602052816000526040600020818154811061022d57600080fd5b90600052602060002001600091509150505481565b60056020528060005260406000206000915090505481565b6060600360008373ffffffffffffffffffffffffffffffffffffffff1673ffffffffffffffffffffffffffffffffffffffff1681526020019081526020016000208054806020026020016040519081016040528092919081815260200182805480156102e557602002820191906000526020600020905b8154815260200190600101908083116102d1575b50505050509050919050565b60008054905090565b60003373ffffffffffffffffffffffffffffffffffffffff1661031b610613565b73ffffffffffffffffffffffffffffffffffffffff161415610372576040517f08c379a000000000000000000000000000000000000000000000000000000000815260040161036990610949565b60405180910390fd5b600061037d33610655565b90506000548111156103c4576040517f08c379a00000000000000000000000000000000000000000000000000000000081526004016103bb90610969565b60405180910390fd5b83600060046000838152602001908152602001600020541461041b576040517f08c379a000000000000000000000000000000000000000000000000000000000815260040161041290610989565b60405180910390fd5b600260009054906101000a900473ffffffffffffffffffffffffffffffffffffffff1673ffffffffffffffffffffffffffffffffffffffff166342842e0e33600160009054906101000a900473ffffffffffffffffffffffffffffffffffffffff16886040518463ffffffff1660e01b815260040161049c939291906108b9565b600060405180830381600087803b1580156104b657600080fd5b505af11580156104ca573d6000803e3d6000fd5b50505050600360003373ffffffffffffffffffffffffffffffffffffffff1673ffffffffffffffffffffffffffffffffffffffff1681526020019081526020016000208590806001815401808255809150506001900390600052602060002001600090919091909150558360046000878152602001908152602001600020819055506001600560003373ffffffffffffffffffffffffffffffffffffffff1673ffffffffffffffffffffffffffffffffffffffff168152602001908152602001600020600082825461059c9190610a0e565b925050819055507fe5b754fb1abb7f01b499791d0b820ae3b6af3424ac1c59768edb53f4ec31a9293386866040516105d6939291906108f0565b60405180910390a1849250505092915050565b6000600260009054906101000a900473ffffffffffffffffffffffffffffffffffffffff16905090565b6000600160009054906101000a900473ffffffffffffffffffffffffffffffffffffffff16905090565b60046020528060005260406000206000915090505481565b6000600560008373ffffffffffffffffffffffffffffffffffffffff1673ffffffffffffffffffffffffffffffffffffffff168152602001908152602001600020549050919050565b6000813590506106ad81610b70565b92915050565b6000813590506106c281610b87565b92915050565b6000602082840312156106da57600080fd5b60006106e88482850161069e565b91505092915050565b6000806040838503121561070457600080fd5b60006107128582860161069e565b9250506020610723858286016106b3565b9150509250929050565b60006020828403121561073f57600080fd5b600061074d848285016106b3565b91505092915050565b6000806040838503121561076957600080fd5b6000610777858286016106b3565b9250506020610788858286016106b3565b9150509250929050565b600061079e8383610880565b60208301905092915050565b6107b381610a64565b82525050565b60006107c4826109d4565b6107ce81856109ec565b93506107d9836109c4565b8060005b8381101561080a5781516107f18882610792565b97506107fc836109df565b9250506001810190506107dd565b5085935050505092915050565b60006108246013836109fd565b915061082f82610acf565b602082019050919050565b6000610847601b836109fd565b915061085282610af8565b602082019050919050565b600061086a6026836109fd565b915061087582610b21565b604082019050919050565b61088981610a96565b82525050565b61089881610a96565b82525050565b60006020820190506108b360008301846107aa565b92915050565b60006060820190506108ce60008301866107aa565b6108db60208301856107aa565b6108e8604083018461088f565b949350505050565b600060608201905061090560008301866107aa565b610912602083018561088f565b61091f604083018461088f565b949350505050565b6000602082019050818103600083015261094181846107b9565b905092915050565b6000602082019050818103600083015261096281610817565b9050919050565b600060208201905081810360008301526109828161083a565b9050919050565b600060208201905081810360008301526109a28161085d565b9050919050565b60006020820190506109be600083018461088f565b92915050565b6000819050602082019050919050565b600081519050919050565b6000602082019050919050565b600082825260208201905092915050565b600082825260208201905092915050565b6000610a1982610a96565b9150610a2483610a96565b9250827fffffffffffffffffffffffffffffffffffffffffffffffffffffffffffffffff03821115610a5957610a58610aa0565b5b828201905092915050565b6000610a6f82610a76565b9050919050565b600073ffffffffffffffffffffffffffffffffffffffff82169050919050565b6000819050919050565b7f4e487b7100000000000000000000000000000000000000000000000000000000600052601160045260246000fd5b7f43616c6c6572206973206e6f74206f776e657200000000000000000000000000600082015250565b7f43616c6c6572206578636565642072656465656d206c696d69742e0000000000600082015250565b7f43616c6c657220747279696e6720746f2072656465656d2072656465656d656460008201527f20746f6b656e0000000000000000000000000000000000000000000000000000602082015250565b610b7981610a64565b8114610b8457600080fd5b50565b610b9081610a96565b8114610b9b57600080fd5b5056fea2646970667358221220453c89dca5b2fc0adbe248932f5b5d690ccde3637395043a926153a93f16958a64736f6c63430008040033",
  "linkReferences": {},
  "deployedLinkReferences": {}
}