{
	"_format": "hh-sol-artifact-1",
	"contractName": "NFTMinter",
	"sourceName": "contracts/NFTGiver.sol",
	"abi": [
		{
			"inputs": [
				{
					"internalType": "address",
					"name": "_nft",
					"type": "address"
				}
			],
			"stateMutability": "nonpayable",
			"type": "constructor"
		},
		{
			"inputs": [],
			"name": "gibme",
			"outputs": [],
			"stateMutability": "nonpayable",
			"type": "function"
		},
		{
			"inputs": [],
			"name": "nft",
			"outputs": [
				{
					"internalType": "contract INFTMinter",
					"name": "",
					"type": "address"
				}
			],
			"stateMutability": "view",
			"type": "function"
		},
		{
			"inputs": [
				{
					"internalType": "uint256",
					"name": "_tokenId",
					"type": "uint256"
				}
			],
			"name": "setTokenId",
			"outputs": [],
			"stateMutability": "nonpayable",
			"type": "function"
		}
	],
	"bytecode": "0x608060405234801561001057600080fd5b506040516104663803806104668339818101604052810190610032919061008e565b80600160006101000a81548173ffffffffffffffffffffffffffffffffffffffff021916908373ffffffffffffffffffffffffffffffffffffffff16021790555050610100565b600081519050610088816100e9565b92915050565b6000602082840312156100a057600080fd5b60006100ae84828501610079565b91505092915050565b60006100c2826100c9565b9050919050565b600073ffffffffffffffffffffffffffffffffffffffff82169050919050565b6100f2816100b7565b81146100fd57600080fd5b50565b6103578061010f6000396000f3fe608060405234801561001057600080fd5b50600436106100415760003560e01c80633a80a61a1461004657806347ccca0214610050578063c929ccf31461006e575b600080fd5b61004e61008a565b005b610058610138565b604051610065919061020a565b60405180910390f35b6100886004803603810190610083919061017d565b61015e565b005b600160009054906101000a900473ffffffffffffffffffffffffffffffffffffffff1673ffffffffffffffffffffffffffffffffffffffff166342842e0e30336000546040518463ffffffff1660e01b81526004016100eb939291906101d3565b600060405180830381600087803b15801561010557600080fd5b505af1158015610119573d6000803e3d6000fd5b50505050600160008082825461012f9190610225565b92505081905550565b600160009054906101000a900473ffffffffffffffffffffffffffffffffffffffff1681565b8060008190555050565b6000813590506101778161030a565b92915050565b60006020828403121561018f57600080fd5b600061019d84828501610168565b91505092915050565b6101af8161027b565b82525050565b6101be816102b7565b82525050565b6101cd816102ad565b82525050565b60006060820190506101e860008301866101a6565b6101f560208301856101a6565b61020260408301846101c4565b949350505050565b600060208201905061021f60008301846101b5565b92915050565b6000610230826102ad565b915061023b836102ad565b9250827fffffffffffffffffffffffffffffffffffffffffffffffffffffffffffffffff038211156102705761026f6102db565b5b828201905092915050565b60006102868261028d565b9050919050565b600073ffffffffffffffffffffffffffffffffffffffff82169050919050565b6000819050919050565b60006102c2826102c9565b9050919050565b60006102d48261028d565b9050919050565b7f4e487b7100000000000000000000000000000000000000000000000000000000600052601160045260246000fd5b610313816102ad565b811461031e57600080fd5b5056fea2646970667358221220d54030704847ed66dd35ff22ba11576e3bb94735c2fb7638053487d2b219561464736f6c63430008040033",
	"linkReferences": {},
	"deployedLinkReferences": {}
}